{
  "_format": "hh-sol-artifact-1",
  "contractName": "Listing",
  "sourceName": "contracts/Listing.sol",
  "abi": [
    {
      "inputs": [
        {
          "internalType": "string",
          "name": "_identifier",
          "type": "string"
        },
        {
          "internalType": "address",
          "name": "_host",
          "type": "address"
        },
        {
          "internalType": "uint256",
          "name": "_target",
          "type": "uint256"
        }
      ],
      "stateMutability": "nonpayable",
      "type": "constructor"
    },
    {
      "inputs": [],
      "name": "getParticipants",
      "outputs": [
        {
          "internalType": "address[]",
          "name": "",
          "type": "address[]"
        }
      ],
      "stateMutability": "view",
      "type": "function"
    },
    {
      "inputs": [],
      "name": "host",
      "outputs": [
        {
          "internalType": "address",
          "name": "",
          "type": "address"
        }
      ],
      "stateMutability": "view",
      "type": "function"
    },
    {
      "inputs": [],
      "name": "identifier",
      "outputs": [
        {
          "internalType": "string",
          "name": "",
          "type": "string"
        }
      ],
      "stateMutability": "view",
      "type": "function"
    },
    {
      "inputs": [
        {
          "internalType": "uint256",
          "name": "",
          "type": "uint256"
        }
      ],
      "name": "participants",
      "outputs": [
        {
          "internalType": "address",
          "name": "",
          "type": "address"
        }
      ],
      "stateMutability": "view",
      "type": "function"
    },
    {
      "inputs": [],
      "name": "participate",
      "outputs": [],
      "stateMutability": "payable",
      "type": "function"
    },
    {
      "inputs": [],
      "name": "target",
      "outputs": [
        {
          "internalType": "uint256",
          "name": "",
          "type": "uint256"
        }
      ],
      "stateMutability": "view",
      "type": "function"
    },
    {
      "inputs": [],
      "name": "targetReached",
      "outputs": [
        {
          "internalType": "bool",
          "name": "",
          "type": "bool"
        }
      ],
      "stateMutability": "view",
      "type": "function"
    }
  ],
  "bytecode": "0x60806040523480156200001157600080fd5b5060405162000d6538038062000d658339818101604052810190620000379190620002cd565b826000908162000048919062000589565b5081600160006101000a81548173ffffffffffffffffffffffffffffffffffffffff021916908373ffffffffffffffffffffffffffffffffffffffff1602179055508060038190555050505062000670565b6000604051905090565b600080fd5b600080fd5b600080fd5b600080fd5b6000601f19601f8301169050919050565b7f4e487b7100000000000000000000000000000000000000000000000000000000600052604160045260246000fd5b6200010382620000b8565b810181811067ffffffffffffffff82111715620001255762000124620000c9565b5b80604052505050565b60006200013a6200009a565b9050620001488282620000f8565b919050565b600067ffffffffffffffff8211156200016b576200016a620000c9565b5b6200017682620000b8565b9050602081019050919050565b60005b83811015620001a357808201518184015260208101905062000186565b60008484015250505050565b6000620001c6620001c0846200014d565b6200012e565b905082815260208101848484011115620001e557620001e4620000b3565b5b620001f284828562000183565b509392505050565b600082601f830112620002125762000211620000ae565b5b815162000224848260208601620001af565b91505092915050565b600073ffffffffffffffffffffffffffffffffffffffff82169050919050565b60006200025a826200022d565b9050919050565b6200026c816200024d565b81146200027857600080fd5b50565b6000815190506200028c8162000261565b92915050565b6000819050919050565b620002a78162000292565b8114620002b357600080fd5b50565b600081519050620002c7816200029c565b92915050565b600080600060608486031215620002e957620002e8620000a4565b5b600084015167ffffffffffffffff8111156200030a5762000309620000a9565b5b6200031886828701620001fa565b93505060206200032b868287016200027b565b92505060406200033e86828701620002b6565b9150509250925092565b600081519050919050565b7f4e487b7100000000000000000000000000000000000000000000000000000000600052602260045260246000fd5b600060028204905060018216806200039b57607f821691505b602082108103620003b157620003b062000353565b5b50919050565b60008190508160005260206000209050919050565b60006020601f8301049050919050565b600082821b905092915050565b6000600883026200041b7fffffffffffffffffffffffffffffffffffffffffffffffffffffffffffffffff82620003dc565b620004278683620003dc565b95508019841693508086168417925050509392505050565b6000819050919050565b60006200046a620004646200045e8462000292565b6200043f565b62000292565b9050919050565b6000819050919050565b620004868362000449565b6200049e620004958262000471565b848454620003e9565b825550505050565b600090565b620004b5620004a6565b620004c28184846200047b565b505050565b5b81811015620004ea57620004de600082620004ab565b600181019050620004c8565b5050565b601f82111562000539576200050381620003b7565b6200050e84620003cc565b810160208510156200051e578190505b620005366200052d85620003cc565b830182620004c7565b50505b505050565b600082821c905092915050565b60006200055e600019846008026200053e565b1980831691505092915050565b60006200057983836200054b565b9150826002028217905092915050565b620005948262000348565b67ffffffffffffffff811115620005b057620005af620000c9565b5b620005bc825462000382565b620005c9828285620004ee565b600060209050601f831160018114620006015760008415620005ec578287015190505b620005f885826200056b565b86555062000668565b601f1984166200061186620003b7565b60005b828110156200063b5784890151825560018201915060208501945060208101905062000614565b868310156200065b578489015162000657601f8916826200054b565b8355505b6001600288020188555050505b505050505050565b6106e580620006806000396000f3fe6080604052600436106100705760003560e01c80637998a1c41161004e5780637998a1c414610108578063d11711a214610133578063d4b839921461013d578063f437bc591461016857610070565b806335c1d349146100755780633bde5ba8146100b25780635aa68ac0146100dd575b600080fd5b34801561008157600080fd5b5061009c600480360381019061009791906103d4565b610193565b6040516100a99190610442565b60405180910390f35b3480156100be57600080fd5b506100c76101d2565b6040516100d49190610478565b60405180910390f35b3480156100e957600080fd5b506100f26101df565b6040516100ff9190610551565b60405180910390f35b34801561011457600080fd5b5061011d61026d565b60405161012a9190610603565b60405180910390f35b61013b6102fb565b005b34801561014957600080fd5b5061015261036d565b60405161015f9190610634565b60405180910390f35b34801561017457600080fd5b5061017d610373565b60405161018a9190610442565b60405180910390f35b600281815481106101a357600080fd5b906000526020600020016000915054906101000a900473ffffffffffffffffffffffffffffffffffffffff1681565b6000600354471015905090565b6060600280548060200260200160405190810160405280929190818152602001828054801561026357602002820191906000526020600020905b8160009054906101000a900473ffffffffffffffffffffffffffffffffffffffff1673ffffffffffffffffffffffffffffffffffffffff1681526020019060010190808311610219575b5050505050905090565b6000805461027a9061067e565b80601f01602080910402602001604051908101604052809291908181526020018280546102a69061067e565b80156102f35780601f106102c8576101008083540402835291602001916102f3565b820191906000526020600020905b8154815290600101906020018083116102d657829003601f168201915b505050505081565b6000341161030857600080fd5b6002339080600181540180825580915050600190039060005260206000200160009091909190916101000a81548173ffffffffffffffffffffffffffffffffffffffff021916908373ffffffffffffffffffffffffffffffffffffffff160217905550565b60035481565b600160009054906101000a900473ffffffffffffffffffffffffffffffffffffffff1681565b600080fd5b6000819050919050565b6103b18161039e565b81146103bc57600080fd5b50565b6000813590506103ce816103a8565b92915050565b6000602082840312156103ea576103e9610399565b5b60006103f8848285016103bf565b91505092915050565b600073ffffffffffffffffffffffffffffffffffffffff82169050919050565b600061042c82610401565b9050919050565b61043c81610421565b82525050565b60006020820190506104576000830184610433565b92915050565b60008115159050919050565b6104728161045d565b82525050565b600060208201905061048d6000830184610469565b92915050565b600081519050919050565b600082825260208201905092915050565b6000819050602082019050919050565b6104c881610421565b82525050565b60006104da83836104bf565b60208301905092915050565b6000602082019050919050565b60006104fe82610493565b610508818561049e565b9350610513836104af565b8060005b8381101561054457815161052b88826104ce565b9750610536836104e6565b925050600181019050610517565b5085935050505092915050565b6000602082019050818103600083015261056b81846104f3565b905092915050565b600081519050919050565b600082825260208201905092915050565b60005b838110156105ad578082015181840152602081019050610592565b60008484015250505050565b6000601f19601f8301169050919050565b60006105d582610573565b6105df818561057e565b93506105ef81856020860161058f565b6105f8816105b9565b840191505092915050565b6000602082019050818103600083015261061d81846105ca565b905092915050565b61062e8161039e565b82525050565b60006020820190506106496000830184610625565b92915050565b7f4e487b7100000000000000000000000000000000000000000000000000000000600052602260045260246000fd5b6000600282049050600182168061069657607f821691505b6020821081036106a9576106a861064f565b5b5091905056fea26469706673582212206ebc1e5bb5acd97a22c607a1a17a248416ebb8c5436421db81518e5c22f431fb64736f6c63430008110033",
  "linkReferences": {},
  "deployedLinkReferences": {}
}