{
  "_format": "hh-sol-artifact-1",
  "contractName": "Listing",
  "sourceName": "contracts/Listing.sol",
  "abi": [
    {
      "inputs": [
        {
          "internalType": "string",
          "name": "_identifier",
          "type": "string"
        },
        {
          "internalType": "address payable",
          "name": "_host",
          "type": "address"
        },
        {
          "internalType": "uint256",
          "name": "_target",
          "type": "uint256"
        },
        {
          "internalType": "uint256",
          "name": "_price",
          "type": "uint256"
        }
      ],
      "stateMutability": "nonpayable",
      "type": "constructor"
    },
    {
      "inputs": [],
      "name": "getParticipants",
      "outputs": [
        {
          "internalType": "address[]",
          "name": "",
          "type": "address[]"
        }
      ],
      "stateMutability": "view",
      "type": "function"
    },
    {
      "inputs": [],
      "name": "host",
      "outputs": [
        {
          "internalType": "address payable",
          "name": "",
          "type": "address"
        }
      ],
      "stateMutability": "view",
      "type": "function"
    },
    {
      "inputs": [],
      "name": "identifier",
      "outputs": [
        {
          "internalType": "string",
          "name": "",
          "type": "string"
        }
      ],
      "stateMutability": "view",
      "type": "function"
    },
    {
      "inputs": [
        {
          "internalType": "uint256",
          "name": "",
          "type": "uint256"
        }
      ],
      "name": "participants",
      "outputs": [
        {
          "internalType": "address",
          "name": "",
          "type": "address"
        }
      ],
      "stateMutability": "view",
      "type": "function"
    },
    {
      "inputs": [
        {
          "internalType": "address",
          "name": "participant",
          "type": "address"
        }
      ],
      "name": "participate",
      "outputs": [],
      "stateMutability": "payable",
      "type": "function"
    },
    {
      "inputs": [],
      "name": "price",
      "outputs": [
        {
          "internalType": "uint256",
          "name": "",
          "type": "uint256"
        }
      ],
      "stateMutability": "view",
      "type": "function"
    },
    {
      "inputs": [],
      "name": "target",
      "outputs": [
        {
          "internalType": "uint256",
          "name": "",
          "type": "uint256"
        }
      ],
      "stateMutability": "view",
      "type": "function"
    },
    {
      "inputs": [],
      "name": "targetReached",
      "outputs": [
        {
          "internalType": "bool",
          "name": "",
          "type": "bool"
        }
      ],
      "stateMutability": "view",
      "type": "function"
    },
    {
      "inputs": [
        {
          "internalType": "address payable",
          "name": "participant",
          "type": "address"
        }
      ],
      "name": "withdraw",
      "outputs": [],
      "stateMutability": "payable",
      "type": "function"
    },
    {
      "stateMutability": "payable",
      "type": "receive"
    }
  ],
  "bytecode": "0x60806040523480156200001157600080fd5b50604051620012ed380380620012ed8339818101604052810190620000379190620002d5565b8360009081620000489190620005a7565b5082600160006101000a81548173ffffffffffffffffffffffffffffffffffffffff021916908373ffffffffffffffffffffffffffffffffffffffff1602179055508160038190555080600481905550505050506200068e565b6000604051905090565b600080fd5b600080fd5b600080fd5b600080fd5b6000601f19601f8301169050919050565b7f4e487b7100000000000000000000000000000000000000000000000000000000600052604160045260246000fd5b6200010b82620000c0565b810181811067ffffffffffffffff821117156200012d576200012c620000d1565b5b80604052505050565b600062000142620000a2565b905062000150828262000100565b919050565b600067ffffffffffffffff821115620001735762000172620000d1565b5b6200017e82620000c0565b9050602081019050919050565b60005b83811015620001ab5780820151818401526020810190506200018e565b60008484015250505050565b6000620001ce620001c88462000155565b62000136565b905082815260208101848484011115620001ed57620001ec620000bb565b5b620001fa8482856200018b565b509392505050565b600082601f8301126200021a5762000219620000b6565b5b81516200022c848260208601620001b7565b91505092915050565b600073ffffffffffffffffffffffffffffffffffffffff82169050919050565b6000620002628262000235565b9050919050565b620002748162000255565b81146200028057600080fd5b50565b600081519050620002948162000269565b92915050565b6000819050919050565b620002af816200029a565b8114620002bb57600080fd5b50565b600081519050620002cf81620002a4565b92915050565b60008060008060808587031215620002f257620002f1620000ac565b5b600085015167ffffffffffffffff811115620003135762000312620000b1565b5b620003218782880162000202565b9450506020620003348782880162000283565b93505060406200034787828801620002be565b92505060606200035a87828801620002be565b91505092959194509250565b600081519050919050565b7f4e487b7100000000000000000000000000000000000000000000000000000000600052602260045260246000fd5b60006002820490506001821680620003b957607f821691505b602082108103620003cf57620003ce62000371565b5b50919050565b60008190508160005260206000209050919050565b60006020601f8301049050919050565b600082821b905092915050565b600060088302620004397fffffffffffffffffffffffffffffffffffffffffffffffffffffffffffffffff82620003fa565b620004458683620003fa565b95508019841693508086168417925050509392505050565b6000819050919050565b600062000488620004826200047c846200029a565b6200045d565b6200029a565b9050919050565b6000819050919050565b620004a48362000467565b620004bc620004b3826200048f565b84845462000407565b825550505050565b600090565b620004d3620004c4565b620004e081848462000499565b505050565b5b818110156200050857620004fc600082620004c9565b600181019050620004e6565b5050565b601f82111562000557576200052181620003d5565b6200052c84620003ea565b810160208510156200053c578190505b620005546200054b85620003ea565b830182620004e5565b50505b505050565b600082821c905092915050565b60006200057c600019846008026200055c565b1980831691505092915050565b600062000597838362000569565b9150826002028217905092915050565b620005b28262000366565b67ffffffffffffffff811115620005ce57620005cd620000d1565b5b620005da8254620003a0565b620005e78282856200050c565b600060209050601f8311600181146200061f57600084156200060a578287015190505b62000616858262000589565b86555062000686565b601f1984166200062f86620003d5565b60005b82811015620006595784890151825560018201915060208501945060208101905062000632565b8683101562000679578489015162000675601f89168262000569565b8355505b6001600288020188555050505b505050505050565b610c4f806200069e6000396000f3fe60806040526004361061008a5760003560e01c80637998a1c4116100595780637998a1c414610145578063a035b1fe14610170578063b91038c71461019b578063d4b83992146101b7578063f437bc59146101e257610091565b806335c1d349146100965780633bde5ba8146100d357806351cff8d9146100fe5780635aa68ac01461011a57610091565b3661009157005b600080fd5b3480156100a257600080fd5b506100bd60048036038101906100b89190610695565b61020d565b6040516100ca9190610703565b60405180910390f35b3480156100df57600080fd5b506100e861024c565b6040516100f59190610739565b60405180910390f35b61011860048036038101906101139190610792565b610259565b005b34801561012657600080fd5b5061012f610498565b60405161013c919061087d565b60405180910390f35b34801561015157600080fd5b5061015a610526565b604051610167919061092f565b60405180910390f35b34801561017c57600080fd5b506101856105b4565b6040516101929190610960565b60405180910390f35b6101b560048036038101906101b091906109a7565b6105ba565b005b3480156101c357600080fd5b506101cc61062e565b6040516101d99190610960565b60405180910390f35b3480156101ee57600080fd5b506101f7610634565b60405161020491906109e3565b60405180910390f35b6002818154811061021d57600080fd5b906000526020600020016000915054906101000a900473ffffffffffffffffffffffffffffffffffffffff1681565b6000600354471015905090565b60008173ffffffffffffffffffffffffffffffffffffffff1660045460405161028190610a2f565b60006040518083038185875af1925050503d80600081146102be576040519150601f19603f3d011682016040523d82523d6000602084013e6102c3565b606091505b5050905080610307576040517f08c379a00000000000000000000000000000000000000000000000000000000081526004016102fe90610a90565b60405180910390fd5b60005b600280549050811015610493578273ffffffffffffffffffffffffffffffffffffffff166002828154811061034257610341610ab0565b5b9060005260206000200160009054906101000a900473ffffffffffffffffffffffffffffffffffffffff1673ffffffffffffffffffffffffffffffffffffffff1603610480576002600160028054905061039c9190610b0e565b815481106103ad576103ac610ab0565b5b9060005260206000200160009054906101000a900473ffffffffffffffffffffffffffffffffffffffff16600282815481106103ec576103eb610ab0565b5b9060005260206000200160006101000a81548173ffffffffffffffffffffffffffffffffffffffff021916908373ffffffffffffffffffffffffffffffffffffffff160217905550600280548061044657610445610b42565b5b6001900381819060005260206000200160006101000a81549073ffffffffffffffffffffffffffffffffffffffff02191690559055610493565b808061048b90610b71565b91505061030a565b505050565b6060600280548060200260200160405190810160405280929190818152602001828054801561051c57602002820191906000526020600020905b8160009054906101000a900473ffffffffffffffffffffffffffffffffffffffff1673ffffffffffffffffffffffffffffffffffffffff16815260200190600101908083116104d2575b5050505050905090565b6000805461053390610be8565b80601f016020809104026020016040519081016040528092919081815260200182805461055f90610be8565b80156105ac5780601f10610581576101008083540402835291602001916105ac565b820191906000526020600020905b81548152906001019060200180831161058f57829003601f168201915b505050505081565b60045481565b60045434146105c857600080fd5b6002819080600181540180825580915050600190039060005260206000200160009091909190916101000a81548173ffffffffffffffffffffffffffffffffffffffff021916908373ffffffffffffffffffffffffffffffffffffffff16021790555050565b60035481565b600160009054906101000a900473ffffffffffffffffffffffffffffffffffffffff1681565b600080fd5b6000819050919050565b6106728161065f565b811461067d57600080fd5b50565b60008135905061068f81610669565b92915050565b6000602082840312156106ab576106aa61065a565b5b60006106b984828501610680565b91505092915050565b600073ffffffffffffffffffffffffffffffffffffffff82169050919050565b60006106ed826106c2565b9050919050565b6106fd816106e2565b82525050565b600060208201905061071860008301846106f4565b92915050565b60008115159050919050565b6107338161071e565b82525050565b600060208201905061074e600083018461072a565b92915050565b600061075f826106c2565b9050919050565b61076f81610754565b811461077a57600080fd5b50565b60008135905061078c81610766565b92915050565b6000602082840312156107a8576107a761065a565b5b60006107b68482850161077d565b91505092915050565b600081519050919050565b600082825260208201905092915050565b6000819050602082019050919050565b6107f4816106e2565b82525050565b600061080683836107eb565b60208301905092915050565b6000602082019050919050565b600061082a826107bf565b61083481856107ca565b935061083f836107db565b8060005b8381101561087057815161085788826107fa565b975061086283610812565b925050600181019050610843565b5085935050505092915050565b60006020820190508181036000830152610897818461081f565b905092915050565b600081519050919050565b600082825260208201905092915050565b60005b838110156108d95780820151818401526020810190506108be565b60008484015250505050565b6000601f19601f8301169050919050565b60006109018261089f565b61090b81856108aa565b935061091b8185602086016108bb565b610924816108e5565b840191505092915050565b6000602082019050818103600083015261094981846108f6565b905092915050565b61095a8161065f565b82525050565b60006020820190506109756000830184610951565b92915050565b610984816106e2565b811461098f57600080fd5b50565b6000813590506109a18161097b565b92915050565b6000602082840312156109bd576109bc61065a565b5b60006109cb84828501610992565b91505092915050565b6109dd81610754565b82525050565b60006020820190506109f860008301846109d4565b92915050565b600081905092915050565b50565b6000610a196000836109fe565b9150610a2482610a09565b600082019050919050565b6000610a3a82610a0c565b9150819050919050565b7f4572726f723a207061796d656e74206e6f742072657475726e65640000000000600082015250565b6000610a7a601b836108aa565b9150610a8582610a44565b602082019050919050565b60006020820190508181036000830152610aa981610a6d565b9050919050565b7f4e487b7100000000000000000000000000000000000000000000000000000000600052603260045260246000fd5b7f4e487b7100000000000000000000000000000000000000000000000000000000600052601160045260246000fd5b6000610b198261065f565b9150610b248361065f565b9250828203905081811115610b3c57610b3b610adf565b5b92915050565b7f4e487b7100000000000000000000000000000000000000000000000000000000600052603160045260246000fd5b6000610b7c8261065f565b91507fffffffffffffffffffffffffffffffffffffffffffffffffffffffffffffffff8203610bae57610bad610adf565b5b600182019050919050565b7f4e487b7100000000000000000000000000000000000000000000000000000000600052602260045260246000fd5b60006002820490506001821680610c0057607f821691505b602082108103610c1357610c12610bb9565b5b5091905056fea26469706673582212207fa9af480be2c1c5f7655d96c15a38708e3da38a22bc2568c07d1dd52736e95a64736f6c63430008110033",
  "linkReferences": {},
  "deployedLinkReferences": {}
}