{"contracts/Market.sol":{"Market":{"abi":[{"inputs":[],"stateMutability":"nonpayable","type":"constructor"},{"anonymous":false,"inputs":[{"indexed":false,"internalType":"uint32","name":"index","type":"uint32"},{"indexed":false,"internalType":"address","name":"host","type":"address"},{"indexed":false,"internalType":"uint256","name":"target","type":"uint256"},{"indexed":false,"internalType":"uint256","name":"price","type":"uint256"}],"name":"Created","type":"event"},{"anonymous":false,"inputs":[{"indexed":false,"internalType":"address","name":"participant","type":"address"},{"indexed":false,"internalType":"uint256","name":"amountPaid","type":"uint256"}],"name":"Participated","type":"event"},{"anonymous":false,"inputs":[{"indexed":false,"internalType":"address","name":"participant","type":"address"},{"indexed":false,"internalType":"uint256","name":"amountReturned","type":"uint256"}],"name":"Withdrawn","type":"event"},{"inputs":[{"internalType":"string","name":"identifier","type":"string"},{"internalType":"address payable","name":"host","type":"address"},{"internalType":"uint256","name":"target","type":"uint256"},{"internalType":"uint256","name":"price","type":"uint256"}],"name":"createListing","outputs":[],"stateMutability":"nonpayable","type":"function"},{"inputs":[],"name":"getAllListingData","outputs":[{"components":[{"internalType":"address","name":"listingAddress","type":"address"},{"internalType":"string","name":"identifier","type":"string"},{"internalType":"address","name":"host","type":"address"},{"internalType":"uint256","name":"balance","type":"uint256"},{"internalType":"uint256","name":"target","type":"uint256"},{"internalType":"uint256","name":"price","type":"uint256"},{"internalType":"address[]","name":"participants","type":"address[]"}],"internalType":"struct Market.listingData[]","name":"","type":"tuple[]"}],"stateMutability":"view","type":"function"},{"inputs":[{"internalType":"uint32","name":"_index","type":"uint32"}],"name":"getListingBalance","outputs":[{"internalType":"uint256","name":"","type":"uint256"}],"stateMutability":"view","type":"function"},{"inputs":[{"internalType":"uint32","name":"_index","type":"uint32"}],"name":"getListingData","outputs":[{"components":[{"internalType":"address","name":"listingAddress","type":"address"},{"internalType":"string","name":"identifier","type":"string"},{"internalType":"address","name":"host","type":"address"},{"internalType":"uint256","name":"balance","type":"uint256"},{"internalType":"uint256","name":"target","type":"uint256"},{"internalType":"uint256","name":"price","type":"uint256"},{"internalType":"address[]","name":"participants","type":"address[]"}],"internalType":"struct Market.listingData","name":"","type":"tuple"}],"stateMutability":"view","type":"function"},{"inputs":[{"internalType":"uint32","name":"_index","type":"uint32"}],"name":"getListingParticipants","outputs":[{"internalType":"address[]","name":"","type":"address[]"}],"stateMutability":"view","type":"function"},{"inputs":[{"internalType":"uint32","name":"_index","type":"uint32"}],"name":"getListingPrice","outputs":[{"internalType":"uint256","name":"","type":"uint256"}],"stateMutability":"view","type":"function"},{"inputs":[{"internalType":"uint32","name":"","type":"uint32"}],"name":"listings","outputs":[{"internalType":"contract Listing","name":"","type":"address"}],"stateMutability":"view","type":"function"},{"inputs":[],"name":"nextIndex","outputs":[{"internalType":"uint32","name":"","type":"uint32"}],"stateMutability":"view","type":"function"},{"inputs":[{"internalType":"uint32","name":"_index","type":"uint32"}],"name":"participateInListing","outputs":[],"stateMutability":"payable","type":"function"},{"inputs":[{"internalType":"uint32","name":"_index","type":"uint32"}],"name":"withdrawFromListing","outputs":[],"stateMutability":"payable","type":"function"}],"evm":{"bytecode":{"linkReferences":{},"object":"608060405234801561001057600080fd5b50612ef7806100206000396000f3fe6080604052600436106200009e5760003560e01c80639d2c5e6b11620000615780639d2c5e6b146200019b578063a5b1376c14620001c9578063f81c2347146200020d578063fc1db46b1462000251578063fc7e9c6f1462000295576200009e565b8063090a65c314620000a357806320d0389114620000e75780634d44eab8146200010757806354f90d2e146200013757806392bc46271462000157575b600080fd5b348015620000b057600080fd5b50620000cf6004803603810190620000c9919062000e94565b620002c5565b604051620000de919062000ee1565b60405180910390f35b620001056004803603810190620000ff919062000e94565b62000324565b005b3480156200011457600080fd5b506200011f62000410565b6040516200012e91906200122c565b60405180910390f35b6200015560048036038101906200014f919062000e94565b62000503565b005b3480156200016457600080fd5b506200018360048036038101906200017d919062000e94565b6200069d565b604051620001929190620012cb565b60405180910390f35b348015620001a857600080fd5b50620001c76004803603810190620001c19190620014b6565b6200075b565b005b348015620001d657600080fd5b50620001f56004803603810190620001ef919062000e94565b620008a8565b60405162000204919062000ee1565b60405180910390f35b3480156200021a57600080fd5b5062000239600480360381019062000233919062000e94565b62000907565b604051620002489190620015b2565b60405180910390f35b3480156200025e57600080fd5b506200027d600480360381019062000277919062000e94565b6200093a565b6040516200028c919062001680565b60405180910390f35b348015620002a257600080fd5b50620002ad62000db2565b604051620002bc9190620016b5565b60405180910390f35b60008060008363ffffffff1663ffffffff16815260200190815260200160002060009054906101000a900473ffffffffffffffffffffffffffffffffffffffff1673ffffffffffffffffffffffffffffffffffffffff16319050919050565b6000808263ffffffff1663ffffffff16815260200190815260200160002060009054906101000a900473ffffffffffffffffffffffffffffffffffffffff1673ffffffffffffffffffffffffffffffffffffffff1663b91038c734336040518363ffffffff1660e01b81526004016200039e9190620016e3565b6000604051808303818588803b158015620003b857600080fd5b505af1158015620003cd573d6000803e3d6000fd5b50505050507fb198f199c43cc078ad46e5a5fabe03eba401f7417816c86af0bd2e7345c9950633346040516200040592919062001700565b60405180910390a150565b60606000600160009054906101000a900463ffffffff1663ffffffff1667ffffffffffffffff811115620004495762000448620012f9565b5b6040519080825280602002602001820160405280156200048657816020015b6200047262000dc8565b815260200190600190039081620004685790505b50905060005b600160009054906101000a900463ffffffff1663ffffffff168163ffffffff161015620004fb57620004be816200093a565b828263ffffffff1681518110620004da57620004d96200172d565b5b60200260200101819052508080620004f2906200178b565b9150506200048c565b508091505090565b6000808263ffffffff1663ffffffff16815260200190815260200160002060009054906101000a900473ffffffffffffffffffffffffffffffffffffffff1673ffffffffffffffffffffffffffffffffffffffff166351cff8d9336040518263ffffffff1660e01b81526004016200057c9190620017cd565b600060405180830381600087803b1580156200059757600080fd5b505af1158015620005ac573d6000803e3d6000fd5b505050507f7084f5476618d8e60b11ef0d7d3f06914655adb8793e28ff7f018d4c76d505d5336000808463ffffffff1663ffffffff16815260200190815260200160002060009054906101000a900473ffffffffffffffffffffffffffffffffffffffff1673ffffffffffffffffffffffffffffffffffffffff1663a035b1fe6040518163ffffffff1660e01b8152600401602060405180830381865afa1580156200065c573d6000803e3d6000fd5b505050506040513d601f19601f8201168201806040525081019062000682919062001801565b6040516200069292919062001700565b60405180910390a150565b60606000808363ffffffff1663ffffffff16815260200190815260200160002060009054906101000a900473ffffffffffffffffffffffffffffffffffffffff1673ffffffffffffffffffffffffffffffffffffffff16635aa68ac06040518163ffffffff1660e01b8152600401600060405180830381865afa15801562000729573d6000803e3d6000fd5b505050506040513d6000823e3d601f19601f820116820180604052508101906200075491906200193f565b9050919050565b6000848484846040516200076f9062000e31565b6200077e9493929190620019e2565b604051809103906000f0801580156200079b573d6000803e3d6000fd5b50905080600080600160009054906101000a900463ffffffff1663ffffffff1663ffffffff16815260200190815260200160002060006101000a81548173ffffffffffffffffffffffffffffffffffffffff021916908373ffffffffffffffffffffffffffffffffffffffff1602179055507f88267447f40672662fb1718420d8fb46a87ebb9b1f1839b28e77f7cf955e99df600160009054906101000a900463ffffffff1685858560405162000856949392919062001a6f565b60405180910390a16001600081819054906101000a900463ffffffff168092919062000882906200178b565b91906101000a81548163ffffffff021916908363ffffffff160217905550505050505050565b60008060008363ffffffff1663ffffffff16815260200190815260200160002060009054906101000a900473ffffffffffffffffffffffffffffffffffffffff1673ffffffffffffffffffffffffffffffffffffffff16319050919050565b60006020528060005260406000206000915054906101000a900473ffffffffffffffffffffffffffffffffffffffff1681565b6200094462000dc8565b6040518060e001604052806000808563ffffffff1663ffffffff16815260200190815260200160002060009054906101000a900473ffffffffffffffffffffffffffffffffffffffff1673ffffffffffffffffffffffffffffffffffffffff1681526020016000808563ffffffff1663ffffffff16815260200190815260200160002060009054906101000a900473ffffffffffffffffffffffffffffffffffffffff1673ffffffffffffffffffffffffffffffffffffffff16637998a1c46040518163ffffffff1660e01b8152600401600060405180830381865afa15801562000a33573d6000803e3d6000fd5b505050506040513d6000823e3d601f19601f8201168201806040525081019062000a5e919062001b3a565b81526020016000808563ffffffff1663ffffffff16815260200190815260200160002060009054906101000a900473ffffffffffffffffffffffffffffffffffffffff1673ffffffffffffffffffffffffffffffffffffffff1663f437bc596040518163ffffffff1660e01b8152600401602060405180830381865afa15801562000aed573d6000803e3d6000fd5b505050506040513d601f19601f8201168201806040525081019062000b13919062001ba2565b73ffffffffffffffffffffffffffffffffffffffff1681526020016000808563ffffffff1663ffffffff16815260200190815260200160002060009054906101000a900473ffffffffffffffffffffffffffffffffffffffff1673ffffffffffffffffffffffffffffffffffffffff163181526020016000808563ffffffff1663ffffffff16815260200190815260200160002060009054906101000a900473ffffffffffffffffffffffffffffffffffffffff1673ffffffffffffffffffffffffffffffffffffffff1663d4b839926040518163ffffffff1660e01b8152600401602060405180830381865afa15801562000c13573d6000803e3d6000fd5b505050506040513d601f19601f8201168201806040525081019062000c39919062001801565b81526020016000808563ffffffff1663ffffffff16815260200190815260200160002060009054906101000a900473ffffffffffffffffffffffffffffffffffffffff1673ffffffffffffffffffffffffffffffffffffffff1663a035b1fe6040518163ffffffff1660e01b8152600401602060405180830381865afa15801562000cc8573d6000803e3d6000fd5b505050506040513d601f19601f8201168201806040525081019062000cee919062001801565b81526020016000808563ffffffff1663ffffffff16815260200190815260200160002060009054906101000a900473ffffffffffffffffffffffffffffffffffffffff1673ffffffffffffffffffffffffffffffffffffffff16635aa68ac06040518163ffffffff1660e01b8152600401600060405180830381865afa15801562000d7d573d6000803e3d6000fd5b505050506040513d6000823e3d601f19601f8201168201806040525081019062000da891906200193f565b8152509050919050565b600160009054906101000a900463ffffffff1681565b6040518060e00160405280600073ffffffffffffffffffffffffffffffffffffffff16815260200160608152602001600073ffffffffffffffffffffffffffffffffffffffff168152602001600081526020016000815260200160008152602001606081525090565b6112ed8062001bd583390190565b6000604051905090565b600080fd5b600080fd5b600063ffffffff82169050919050565b62000e6e8162000e53565b811462000e7a57600080fd5b50565b60008135905062000e8e8162000e63565b92915050565b60006020828403121562000ead5762000eac62000e49565b5b600062000ebd8482850162000e7d565b91505092915050565b6000819050919050565b62000edb8162000ec6565b82525050565b600060208201905062000ef8600083018462000ed0565b92915050565b600081519050919050565b600082825260208201905092915050565b6000819050602082019050919050565b600073ffffffffffffffffffffffffffffffffffffffff82169050919050565b600062000f578262000f2a565b9050919050565b62000f698162000f4a565b82525050565b600081519050919050565b600082825260208201905092915050565b60005b8381101562000fab57808201518184015260208101905062000f8e565b60008484015250505050565b6000601f19601f8301169050919050565b600062000fd58262000f6f565b62000fe1818562000f7a565b935062000ff381856020860162000f8b565b62000ffe8162000fb7565b840191505092915050565b620010148162000ec6565b82525050565b600081519050919050565b600082825260208201905092915050565b6000819050602082019050919050565b600062001054838362000f5e565b60208301905092915050565b6000602082019050919050565b60006200107a826200101a565b62001086818562001025565b9350620010938362001036565b8060005b83811015620010ca578151620010ae888262001046565b9750620010bb8362001060565b92505060018101905062001097565b5085935050505092915050565b600060e083016000830151620010f1600086018262000f5e565b50602083015184820360208601526200110b828262000fc8565b915050604083015162001122604086018262000f5e565b50606083015162001137606086018262001009565b5060808301516200114c608086018262001009565b5060a08301516200116160a086018262001009565b5060c083015184820360c08601526200117b82826200106d565b9150508091505092915050565b6000620011968383620010d7565b905092915050565b6000602082019050919050565b6000620011b88262000efe565b620011c4818562000f09565b935083602082028501620011d88562000f1a565b8060005b858110156200121a5784840389528151620011f8858262001188565b945062001205836200119e565b925060208a01995050600181019050620011dc565b50829750879550505050505092915050565b60006020820190508181036000830152620012488184620011ab565b905092915050565b600082825260208201905092915050565b60006200126e826200101a565b6200127a818562001250565b9350620012878362001036565b8060005b83811015620012be578151620012a2888262001046565b9750620012af8362001060565b9250506001810190506200128b565b5085935050505092915050565b60006020820190508181036000830152620012e7818462001261565b905092915050565b600080fd5b600080fd5b7f4e487b7100000000000000000000000000000000000000000000000000000000600052604160045260246000fd5b620013338262000fb7565b810181811067ffffffffffffffff82111715620013555762001354620012f9565b5b80604052505050565b60006200136a62000e3f565b905062001378828262001328565b919050565b600067ffffffffffffffff8211156200139b576200139a620012f9565b5b620013a68262000fb7565b9050602081019050919050565b82818337600083830152505050565b6000620013d9620013d3846200137d565b6200135e565b905082815260208101848484011115620013f857620013f7620012f4565b5b62001405848285620013b3565b509392505050565b600082601f830112620014255762001424620012ef565b5b813562001437848260208601620013c2565b91505092915050565b60006200144d8262000f2a565b9050919050565b6200145f8162001440565b81146200146b57600080fd5b50565b6000813590506200147f8162001454565b92915050565b620014908162000ec6565b81146200149c57600080fd5b50565b600081359050620014b08162001485565b92915050565b60008060008060808587031215620014d357620014d262000e49565b5b600085013567ffffffffffffffff811115620014f457620014f362000e4e565b5b62001502878288016200140d565b945050602062001515878288016200146e565b935050604062001528878288016200149f565b92505060606200153b878288016200149f565b91505092959194509250565b6000819050919050565b6000620015726200156c620015668462000f2a565b62001547565b62000f2a565b9050919050565b6000620015868262001551565b9050919050565b60006200159a8262001579565b9050919050565b620015ac816200158d565b82525050565b6000602082019050620015c96000830184620015a1565b92915050565b600060e083016000830151620015e9600086018262000f5e565b506020830151848203602086015262001603828262000fc8565b91505060408301516200161a604086018262000f5e565b5060608301516200162f606086018262001009565b50608083015162001644608086018262001009565b5060a08301516200165960a086018262001009565b5060c083015184820360c08601526200167382826200106d565b9150508091505092915050565b600060208201905081810360008301526200169c8184620015cf565b905092915050565b620016af8162000e53565b82525050565b6000602082019050620016cc6000830184620016a4565b92915050565b620016dd8162000f4a565b82525050565b6000602082019050620016fa6000830184620016d2565b92915050565b6000604082019050620017176000830185620016d2565b62001726602083018462000ed0565b9392505050565b7f4e487b7100000000000000000000000000000000000000000000000000000000600052603260045260246000fd5b7f4e487b7100000000000000000000000000000000000000000000000000000000600052601160045260246000fd5b6000620017988262000e53565b915063ffffffff8203620017b157620017b06200175c565b5b600182019050919050565b620017c78162001440565b82525050565b6000602082019050620017e46000830184620017bc565b92915050565b600081519050620017fb8162001485565b92915050565b6000602082840312156200181a576200181962000e49565b5b60006200182a84828501620017ea565b91505092915050565b600067ffffffffffffffff821115620018515762001850620012f9565b5b602082029050602081019050919050565b600080fd5b620018728162000f4a565b81146200187e57600080fd5b50565b600081519050620018928162001867565b92915050565b6000620018af620018a98462001833565b6200135e565b90508083825260208201905060208402830185811115620018d557620018d462001862565b5b835b81811015620019025780620018ed888262001881565b845260208401935050602081019050620018d7565b5050509392505050565b600082601f830112620019245762001923620012ef565b5b81516200193684826020860162001898565b91505092915050565b60006020828403121562001958576200195762000e49565b5b600082015167ffffffffffffffff81111562001979576200197862000e4e565b5b62001987848285016200190c565b91505092915050565b600082825260208201905092915050565b6000620019ae8262000f6f565b620019ba818562001990565b9350620019cc81856020860162000f8b565b620019d78162000fb7565b840191505092915050565b60006080820190508181036000830152620019fe8187620019a1565b905062001a0f6020830186620017bc565b62001a1e604083018562000ed0565b62001a2d606083018462000ed0565b95945050505050565b600062001a438262001551565b9050919050565b600062001a578262001a36565b9050919050565b62001a698162001a4a565b82525050565b600060808201905062001a866000830187620016a4565b62001a95602083018662001a5e565b62001aa4604083018562000ed0565b62001ab3606083018462000ed0565b95945050505050565b600062001ad362001acd846200137d565b6200135e565b90508281526020810184848401111562001af25762001af1620012f4565b5b62001aff84828562000f8b565b509392505050565b600082601f83011262001b1f5762001b1e620012ef565b5b815162001b3184826020860162001abc565b91505092915050565b60006020828403121562001b535762001b5262000e49565b5b600082015167ffffffffffffffff81111562001b745762001b7362000e4e565b5b62001b828482850162001b07565b91505092915050565b60008151905062001b9c8162001454565b92915050565b60006020828403121562001bbb5762001bba62000e49565b5b600062001bcb8482850162001b8b565b9150509291505056fe60806040523480156200001157600080fd5b50604051620012ed380380620012ed8339818101604052810190620000379190620002d5565b8360009081620000489190620005a7565b5082600160006101000a81548173ffffffffffffffffffffffffffffffffffffffff021916908373ffffffffffffffffffffffffffffffffffffffff1602179055508160038190555080600481905550505050506200068e565b6000604051905090565b600080fd5b600080fd5b600080fd5b600080fd5b6000601f19601f8301169050919050565b7f4e487b7100000000000000000000000000000000000000000000000000000000600052604160045260246000fd5b6200010b82620000c0565b810181811067ffffffffffffffff821117156200012d576200012c620000d1565b5b80604052505050565b600062000142620000a2565b905062000150828262000100565b919050565b600067ffffffffffffffff821115620001735762000172620000d1565b5b6200017e82620000c0565b9050602081019050919050565b60005b83811015620001ab5780820151818401526020810190506200018e565b60008484015250505050565b6000620001ce620001c88462000155565b62000136565b905082815260208101848484011115620001ed57620001ec620000bb565b5b620001fa8482856200018b565b509392505050565b600082601f8301126200021a5762000219620000b6565b5b81516200022c848260208601620001b7565b91505092915050565b600073ffffffffffffffffffffffffffffffffffffffff82169050919050565b6000620002628262000235565b9050919050565b620002748162000255565b81146200028057600080fd5b50565b600081519050620002948162000269565b92915050565b6000819050919050565b620002af816200029a565b8114620002bb57600080fd5b50565b600081519050620002cf81620002a4565b92915050565b60008060008060808587031215620002f257620002f1620000ac565b5b600085015167ffffffffffffffff811115620003135762000312620000b1565b5b620003218782880162000202565b9450506020620003348782880162000283565b93505060406200034787828801620002be565b92505060606200035a87828801620002be565b91505092959194509250565b600081519050919050565b7f4e487b7100000000000000000000000000000000000000000000000000000000600052602260045260246000fd5b60006002820490506001821680620003b957607f821691505b602082108103620003cf57620003ce62000371565b5b50919050565b60008190508160005260206000209050919050565b60006020601f8301049050919050565b600082821b905092915050565b600060088302620004397fffffffffffffffffffffffffffffffffffffffffffffffffffffffffffffffff82620003fa565b620004458683620003fa565b95508019841693508086168417925050509392505050565b6000819050919050565b600062000488620004826200047c846200029a565b6200045d565b6200029a565b9050919050565b6000819050919050565b620004a48362000467565b620004bc620004b3826200048f565b84845462000407565b825550505050565b600090565b620004d3620004c4565b620004e081848462000499565b505050565b5b818110156200050857620004fc600082620004c9565b600181019050620004e6565b5050565b601f82111562000557576200052181620003d5565b6200052c84620003ea565b810160208510156200053c578190505b620005546200054b85620003ea565b830182620004e5565b50505b505050565b600082821c905092915050565b60006200057c600019846008026200055c565b1980831691505092915050565b600062000597838362000569565b9150826002028217905092915050565b620005b28262000366565b67ffffffffffffffff811115620005ce57620005cd620000d1565b5b620005da8254620003a0565b620005e78282856200050c565b600060209050601f8311600181146200061f57600084156200060a578287015190505b62000616858262000589565b86555062000686565b601f1984166200062f86620003d5565b60005b82811015620006595784890151825560018201915060208501945060208101905062000632565b8683101562000679578489015162000675601f89168262000569565b8355505b6001600288020188555050505b505050505050565b610c4f806200069e6000396000f3fe60806040526004361061008a5760003560e01c80637998a1c4116100595780637998a1c414610145578063a035b1fe14610170578063b91038c71461019b578063d4b83992146101b7578063f437bc59146101e257610091565b806335c1d349146100965780633bde5ba8146100d357806351cff8d9146100fe5780635aa68ac01461011a57610091565b3661009157005b600080fd5b3480156100a257600080fd5b506100bd60048036038101906100b89190610695565b61020d565b6040516100ca9190610703565b60405180910390f35b3480156100df57600080fd5b506100e861024c565b6040516100f59190610739565b60405180910390f35b61011860048036038101906101139190610792565b610259565b005b34801561012657600080fd5b5061012f610498565b60405161013c919061087d565b60405180910390f35b34801561015157600080fd5b5061015a610526565b604051610167919061092f565b60405180910390f35b34801561017c57600080fd5b506101856105b4565b6040516101929190610960565b60405180910390f35b6101b560048036038101906101b091906109a7565b6105ba565b005b3480156101c357600080fd5b506101cc61062e565b6040516101d99190610960565b60405180910390f35b3480156101ee57600080fd5b506101f7610634565b60405161020491906109e3565b60405180910390f35b6002818154811061021d57600080fd5b906000526020600020016000915054906101000a900473ffffffffffffffffffffffffffffffffffffffff1681565b6000600354471015905090565b60008173ffffffffffffffffffffffffffffffffffffffff1660045460405161028190610a2f565b60006040518083038185875af1925050503d80600081146102be576040519150601f19603f3d011682016040523d82523d6000602084013e6102c3565b606091505b5050905080610307576040517f08c379a00000000000000000000000000000000000000000000000000000000081526004016102fe90610a90565b60405180910390fd5b60005b600280549050811015610493578273ffffffffffffffffffffffffffffffffffffffff166002828154811061034257610341610ab0565b5b9060005260206000200160009054906101000a900473ffffffffffffffffffffffffffffffffffffffff1673ffffffffffffffffffffffffffffffffffffffff1603610480576002600160028054905061039c9190610b0e565b815481106103ad576103ac610ab0565b5b9060005260206000200160009054906101000a900473ffffffffffffffffffffffffffffffffffffffff16600282815481106103ec576103eb610ab0565b5b9060005260206000200160006101000a81548173ffffffffffffffffffffffffffffffffffffffff021916908373ffffffffffffffffffffffffffffffffffffffff160217905550600280548061044657610445610b42565b5b6001900381819060005260206000200160006101000a81549073ffffffffffffffffffffffffffffffffffffffff02191690559055610493565b808061048b90610b71565b91505061030a565b505050565b6060600280548060200260200160405190810160405280929190818152602001828054801561051c57602002820191906000526020600020905b8160009054906101000a900473ffffffffffffffffffffffffffffffffffffffff1673ffffffffffffffffffffffffffffffffffffffff16815260200190600101908083116104d2575b5050505050905090565b6000805461053390610be8565b80601f016020809104026020016040519081016040528092919081815260200182805461055f90610be8565b80156105ac5780601f10610581576101008083540402835291602001916105ac565b820191906000526020600020905b81548152906001019060200180831161058f57829003601f168201915b505050505081565b60045481565b60045434146105c857600080fd5b6002819080600181540180825580915050600190039060005260206000200160009091909190916101000a81548173ffffffffffffffffffffffffffffffffffffffff021916908373ffffffffffffffffffffffffffffffffffffffff16021790555050565b60035481565b600160009054906101000a900473ffffffffffffffffffffffffffffffffffffffff1681565b600080fd5b6000819050919050565b6106728161065f565b811461067d57600080fd5b50565b60008135905061068f81610669565b92915050565b6000602082840312156106ab576106aa61065a565b5b60006106b984828501610680565b91505092915050565b600073ffffffffffffffffffffffffffffffffffffffff82169050919050565b60006106ed826106c2565b9050919050565b6106fd816106e2565b82525050565b600060208201905061071860008301846106f4565b92915050565b60008115159050919050565b6107338161071e565b82525050565b600060208201905061074e600083018461072a565b92915050565b600061075f826106c2565b9050919050565b61076f81610754565b811461077a57600080fd5b50565b60008135905061078c81610766565b92915050565b6000602082840312156107a8576107a761065a565b5b60006107b68482850161077d565b91505092915050565b600081519050919050565b600082825260208201905092915050565b6000819050602082019050919050565b6107f4816106e2565b82525050565b600061080683836107eb565b60208301905092915050565b6000602082019050919050565b600061082a826107bf565b61083481856107ca565b935061083f836107db565b8060005b8381101561087057815161085788826107fa565b975061086283610812565b925050600181019050610843565b5085935050505092915050565b60006020820190508181036000830152610897818461081f565b905092915050565b600081519050919050565b600082825260208201905092915050565b60005b838110156108d95780820151818401526020810190506108be565b60008484015250505050565b6000601f19601f8301169050919050565b60006109018261089f565b61090b81856108aa565b935061091b8185602086016108bb565b610924816108e5565b840191505092915050565b6000602082019050818103600083015261094981846108f6565b905092915050565b61095a8161065f565b82525050565b60006020820190506109756000830184610951565b92915050565b610984816106e2565b811461098f57600080fd5b50565b6000813590506109a18161097b565b92915050565b6000602082840312156109bd576109bc61065a565b5b60006109cb84828501610992565b91505092915050565b6109dd81610754565b82525050565b60006020820190506109f860008301846109d4565b92915050565b600081905092915050565b50565b6000610a196000836109fe565b9150610a2482610a09565b600082019050919050565b6000610a3a82610a0c565b9150819050919050565b7f4572726f723a207061796d656e74206e6f742072657475726e65640000000000600082015250565b6000610a7a601b836108aa565b9150610a8582610a44565b602082019050919050565b60006020820190508181036000830152610aa981610a6d565b9050919050565b7f4e487b7100000000000000000000000000000000000000000000000000000000600052603260045260246000fd5b7f4e487b7100000000000000000000000000000000000000000000000000000000600052601160045260246000fd5b6000610b198261065f565b9150610b248361065f565b9250828203905081811115610b3c57610b3b610adf565b5b92915050565b7f4e487b7100000000000000000000000000000000000000000000000000000000600052603160045260246000fd5b6000610b7c8261065f565b91507fffffffffffffffffffffffffffffffffffffffffffffffffffffffffffffffff8203610bae57610bad610adf565b5b600182019050919050565b7f4e487b7100000000000000000000000000000000000000000000000000000000600052602260045260246000fd5b60006002820490506001821680610c0057607f821691505b602082108103610c1357610c12610bb9565b5b5091905056fea26469706673582212207fa9af480be2c1c5f7655d96c15a38708e3da38a22bc2568c07d1dd52736e95a64736f6c63430008110033a2646970667358221220dc2d838bc4d5ffd2c4c7c9f1c3a8d3fadf56fb1def462f0d14b4cec937a8cfdd64736f6c63430008110033","opcodes":"PUSH1 0x80 PUSH1 0x40 MSTORE CALLVALUE DUP1 ISZERO PUSH2 0x10 JUMPI PUSH1 0x0 DUP1 REVERT JUMPDEST POP PUSH2 0x2EF7 DUP1 PUSH2 0x20 PUSH1 0x0 CODECOPY PUSH1 0x0 RETURN INVALID PUSH1 0x80 PUSH1 0x40 MSTORE PUSH1 0x4 CALLDATASIZE LT PUSH3 0x9E JUMPI PUSH1 0x0 CALLDATALOAD PUSH1 0xE0 SHR DUP1 PUSH4 0x9D2C5E6B GT PUSH3 0x61 JUMPI DUP1 PUSH4 0x9D2C5E6B EQ PUSH3 0x19B JUMPI DUP1 PUSH4 0xA5B1376C EQ PUSH3 0x1C9 JUMPI DUP1 PUSH4 0xF81C2347 EQ PUSH3 0x20D JUMPI DUP1 PUSH4 0xFC1DB46B EQ PUSH3 0x251 JUMPI DUP1 PUSH4 0xFC7E9C6F EQ PUSH3 0x295 JUMPI PUSH3 0x9E JUMP JUMPDEST DUP1 PUSH4 0x90A65C3 EQ PUSH3 0xA3 JUMPI DUP1 PUSH4 0x20D03891 EQ PUSH3 0xE7 JUMPI DUP1 PUSH4 0x4D44EAB8 EQ PUSH3 0x107 JUMPI DUP1 PUSH4 0x54F90D2E EQ PUSH3 0x137 JUMPI DUP1 PUSH4 0x92BC4627 EQ PUSH3 0x157 JUMPI JUMPDEST PUSH1 0x0 DUP1 REVERT JUMPDEST CALLVALUE DUP1 ISZERO PUSH3 0xB0 JUMPI PUSH1 0x0 DUP1 REVERT JUMPDEST POP PUSH3 0xCF PUSH1 0x4 DUP1 CALLDATASIZE SUB DUP2 ADD SWAP1 PUSH3 0xC9 SWAP2 SWAP1 PUSH3 0xE94 JUMP JUMPDEST PUSH3 0x2C5 JUMP JUMPDEST PUSH1 0x40 MLOAD PUSH3 0xDE SWAP2 SWAP1 PUSH3 0xEE1 JUMP JUMPDEST PUSH1 0x40 MLOAD DUP1 SWAP2 SUB SWAP1 RETURN JUMPDEST PUSH3 0x105 PUSH1 0x4 DUP1 CALLDATASIZE SUB DUP2 ADD SWAP1 PUSH3 0xFF SWAP2 SWAP1 PUSH3 0xE94 JUMP JUMPDEST PUSH3 0x324 JUMP JUMPDEST STOP JUMPDEST CALLVALUE DUP1 ISZERO PUSH3 0x114 JUMPI PUSH1 0x0 DUP1 REVERT JUMPDEST POP PUSH3 0x11F PUSH3 0x410 JUMP JUMPDEST PUSH1 0x40 MLOAD PUSH3 0x12E SWAP2 SWAP1 PUSH3 0x122C JUMP JUMPDEST PUSH1 0x40 MLOAD DUP1 SWAP2 SUB SWAP1 RETURN JUMPDEST PUSH3 0x155 PUSH1 0x4 DUP1 CALLDATASIZE SUB DUP2 ADD SWAP1 PUSH3 0x14F SWAP2 SWAP1 PUSH3 0xE94 JUMP JUMPDEST PUSH3 0x503 JUMP JUMPDEST STOP JUMPDEST CALLVALUE DUP1 ISZERO PUSH3 0x164 JUMPI PUSH1 0x0 DUP1 REVERT JUMPDEST POP PUSH3 0x183 PUSH1 0x4 DUP1 CALLDATASIZE SUB DUP2 ADD SWAP1 PUSH3 0x17D SWAP2 SWAP1 PUSH3 0xE94 JUMP JUMPDEST PUSH3 0x69D JUMP JUMPDEST PUSH1 0x40 MLOAD PUSH3 0x192 SWAP2 SWAP1 PUSH3 0x12CB JUMP JUMPDEST PUSH1 0x40 MLOAD DUP1 SWAP2 SUB SWAP1 RETURN JUMPDEST CALLVALUE DUP1 ISZERO PUSH3 0x1A8 JUMPI PUSH1 0x0 DUP1 REVERT JUMPDEST POP PUSH3 0x1C7 PUSH1 0x4 DUP1 CALLDATASIZE SUB DUP2 ADD SWAP1 PUSH3 0x1C1 SWAP2 SWAP1 PUSH3 0x14B6 JUMP JUMPDEST PUSH3 0x75B JUMP JUMPDEST STOP JUMPDEST CALLVALUE DUP1 ISZERO PUSH3 0x1D6 JUMPI PUSH1 0x0 DUP1 REVERT JUMPDEST POP PUSH3 0x1F5 PUSH1 0x4 DUP1 CALLDATASIZE SUB DUP2 ADD SWAP1 PUSH3 0x1EF SWAP2 SWAP1 PUSH3 0xE94 JUMP JUMPDEST PUSH3 0x8A8 JUMP JUMPDEST PUSH1 0x40 MLOAD PUSH3 0x204 SWAP2 SWAP1 PUSH3 0xEE1 JUMP JUMPDEST PUSH1 0x40 MLOAD DUP1 SWAP2 SUB SWAP1 RETURN JUMPDEST CALLVALUE DUP1 ISZERO PUSH3 0x21A JUMPI PUSH1 0x0 DUP1 REVERT JUMPDEST POP PUSH3 0x239 PUSH1 0x4 DUP1 CALLDATASIZE SUB DUP2 ADD SWAP1 PUSH3 0x233 SWAP2 SWAP1 PUSH3 0xE94 JUMP JUMPDEST PUSH3 0x907 JUMP JUMPDEST PUSH1 0x40 MLOAD PUSH3 0x248 SWAP2 SWAP1 PUSH3 0x15B2 JUMP JUMPDEST PUSH1 0x40 MLOAD DUP1 SWAP2 SUB SWAP1 RETURN JUMPDEST CALLVALUE DUP1 ISZERO PUSH3 0x25E JUMPI PUSH1 0x0 DUP1 REVERT JUMPDEST POP PUSH3 0x27D PUSH1 0x4 DUP1 CALLDATASIZE SUB DUP2 ADD SWAP1 PUSH3 0x277 SWAP2 SWAP1 PUSH3 0xE94 JUMP JUMPDEST PUSH3 0x93A JUMP JUMPDEST PUSH1 0x40 MLOAD PUSH3 0x28C SWAP2 SWAP1 PUSH3 0x1680 JUMP JUMPDEST PUSH1 0x40 MLOAD DUP1 SWAP2 SUB SWAP1 RETURN JUMPDEST CALLVALUE DUP1 ISZERO PUSH3 0x2A2 JUMPI PUSH1 0x0 DUP1 REVERT JUMPDEST POP PUSH3 0x2AD PUSH3 0xDB2 JUMP JUMPDEST PUSH1 0x40 MLOAD PUSH3 0x2BC SWAP2 SWAP1 PUSH3 0x16B5 JUMP JUMPDEST PUSH1 0x40 MLOAD DUP1 SWAP2 SUB SWAP1 RETURN JUMPDEST PUSH1 0x0 DUP1 PUSH1 0x0 DUP4 PUSH4 0xFFFFFFFF AND PUSH4 0xFFFFFFFF AND DUP2 MSTORE PUSH1 0x20 ADD SWAP1 DUP2 MSTORE PUSH1 0x20 ADD PUSH1 0x0 KECCAK256 PUSH1 0x0 SWAP1 SLOAD SWAP1 PUSH2 0x100 EXP SWAP1 DIV PUSH20 0xFFFFFFFFFFFFFFFFFFFFFFFFFFFFFFFFFFFFFFFF AND PUSH20 0xFFFFFFFFFFFFFFFFFFFFFFFFFFFFFFFFFFFFFFFF AND BALANCE SWAP1 POP SWAP2 SWAP1 POP JUMP JUMPDEST PUSH1 0x0 DUP1 DUP3 PUSH4 0xFFFFFFFF AND PUSH4 0xFFFFFFFF AND DUP2 MSTORE PUSH1 0x20 ADD SWAP1 DUP2 MSTORE PUSH1 0x20 ADD PUSH1 0x0 KECCAK256 PUSH1 0x0 SWAP1 SLOAD SWAP1 PUSH2 0x100 EXP SWAP1 DIV PUSH20 0xFFFFFFFFFFFFFFFFFFFFFFFFFFFFFFFFFFFFFFFF AND PUSH20 0xFFFFFFFFFFFFFFFFFFFFFFFFFFFFFFFFFFFFFFFF AND PUSH4 0xB91038C7 CALLVALUE CALLER PUSH1 0x40 MLOAD DUP4 PUSH4 0xFFFFFFFF AND PUSH1 0xE0 SHL DUP2 MSTORE PUSH1 0x4 ADD PUSH3 0x39E SWAP2 SWAP1 PUSH3 0x16E3 JUMP JUMPDEST PUSH1 0x0 PUSH1 0x40 MLOAD DUP1 DUP4 SUB DUP2 DUP6 DUP9 DUP1 EXTCODESIZE ISZERO DUP1 ISZERO PUSH3 0x3B8 JUMPI PUSH1 0x0 DUP1 REVERT JUMPDEST POP GAS CALL ISZERO DUP1 ISZERO PUSH3 0x3CD JUMPI RETURNDATASIZE PUSH1 0x0 DUP1 RETURNDATACOPY RETURNDATASIZE PUSH1 0x0 REVERT JUMPDEST POP POP POP POP POP PUSH32 0xB198F199C43CC078AD46E5A5FABE03EBA401F7417816C86AF0BD2E7345C99506 CALLER CALLVALUE PUSH1 0x40 MLOAD PUSH3 0x405 SWAP3 SWAP2 SWAP1 PUSH3 0x1700 JUMP JUMPDEST PUSH1 0x40 MLOAD DUP1 SWAP2 SUB SWAP1 LOG1 POP JUMP JUMPDEST PUSH1 0x60 PUSH1 0x0 PUSH1 0x1 PUSH1 0x0 SWAP1 SLOAD SWAP1 PUSH2 0x100 EXP SWAP1 DIV PUSH4 0xFFFFFFFF AND PUSH4 0xFFFFFFFF AND PUSH8 0xFFFFFFFFFFFFFFFF DUP2 GT ISZERO PUSH3 0x449 JUMPI PUSH3 0x448 PUSH3 0x12F9 JUMP JUMPDEST JUMPDEST PUSH1 0x40 MLOAD SWAP1 DUP1 DUP3 MSTORE DUP1 PUSH1 0x20 MUL PUSH1 0x20 ADD DUP3 ADD PUSH1 0x40 MSTORE DUP1 ISZERO PUSH3 0x486 JUMPI DUP2 PUSH1 0x20 ADD JUMPDEST PUSH3 0x472 PUSH3 0xDC8 JUMP JUMPDEST DUP2 MSTORE PUSH1 0x20 ADD SWAP1 PUSH1 0x1 SWAP1 SUB SWAP1 DUP2 PUSH3 0x468 JUMPI SWAP1 POP JUMPDEST POP SWAP1 POP PUSH1 0x0 JUMPDEST PUSH1 0x1 PUSH1 0x0 SWAP1 SLOAD SWAP1 PUSH2 0x100 EXP SWAP1 DIV PUSH4 0xFFFFFFFF AND PUSH4 0xFFFFFFFF AND DUP2 PUSH4 0xFFFFFFFF AND LT ISZERO PUSH3 0x4FB JUMPI PUSH3 0x4BE DUP2 PUSH3 0x93A JUMP JUMPDEST DUP3 DUP3 PUSH4 0xFFFFFFFF AND DUP2 MLOAD DUP2 LT PUSH3 0x4DA JUMPI PUSH3 0x4D9 PUSH3 0x172D JUMP JUMPDEST JUMPDEST PUSH1 0x20 MUL PUSH1 0x20 ADD ADD DUP2 SWAP1 MSTORE POP DUP1 DUP1 PUSH3 0x4F2 SWAP1 PUSH3 0x178B JUMP JUMPDEST SWAP2 POP POP PUSH3 0x48C JUMP JUMPDEST POP DUP1 SWAP2 POP POP SWAP1 JUMP JUMPDEST PUSH1 0x0 DUP1 DUP3 PUSH4 0xFFFFFFFF AND PUSH4 0xFFFFFFFF AND DUP2 MSTORE PUSH1 0x20 ADD SWAP1 DUP2 MSTORE PUSH1 0x20 ADD PUSH1 0x0 KECCAK256 PUSH1 0x0 SWAP1 SLOAD SWAP1 PUSH2 0x100 EXP SWAP1 DIV PUSH20 0xFFFFFFFFFFFFFFFFFFFFFFFFFFFFFFFFFFFFFFFF AND PUSH20 0xFFFFFFFFFFFFFFFFFFFFFFFFFFFFFFFFFFFFFFFF AND PUSH4 0x51CFF8D9 CALLER PUSH1 0x40 MLOAD DUP3 PUSH4 0xFFFFFFFF AND PUSH1 0xE0 SHL DUP2 MSTORE PUSH1 0x4 ADD PUSH3 0x57C SWAP2 SWAP1 PUSH3 0x17CD JUMP JUMPDEST PUSH1 0x0 PUSH1 0x40 MLOAD DUP1 DUP4 SUB DUP2 PUSH1 0x0 DUP8 DUP1 EXTCODESIZE ISZERO DUP1 ISZERO PUSH3 0x597 JUMPI PUSH1 0x0 DUP1 REVERT JUMPDEST POP GAS CALL ISZERO DUP1 ISZERO PUSH3 0x5AC JUMPI RETURNDATASIZE PUSH1 0x0 DUP1 RETURNDATACOPY RETURNDATASIZE PUSH1 0x0 REVERT JUMPDEST POP POP POP POP PUSH32 0x7084F5476618D8E60B11EF0D7D3F06914655ADB8793E28FF7F018D4C76D505D5 CALLER PUSH1 0x0 DUP1 DUP5 PUSH4 0xFFFFFFFF AND PUSH4 0xFFFFFFFF AND DUP2 MSTORE PUSH1 0x20 ADD SWAP1 DUP2 MSTORE PUSH1 0x20 ADD PUSH1 0x0 KECCAK256 PUSH1 0x0 SWAP1 SLOAD SWAP1 PUSH2 0x100 EXP SWAP1 DIV PUSH20 0xFFFFFFFFFFFFFFFFFFFFFFFFFFFFFFFFFFFFFFFF AND PUSH20 0xFFFFFFFFFFFFFFFFFFFFFFFFFFFFFFFFFFFFFFFF AND PUSH4 0xA035B1FE PUSH1 0x40 MLOAD DUP2 PUSH4 0xFFFFFFFF AND PUSH1 0xE0 SHL DUP2 MSTORE PUSH1 0x4 ADD PUSH1 0x20 PUSH1 0x40 MLOAD DUP1 DUP4 SUB DUP2 DUP7 GAS STATICCALL ISZERO DUP1 ISZERO PUSH3 0x65C JUMPI RETURNDATASIZE PUSH1 0x0 DUP1 RETURNDATACOPY RETURNDATASIZE PUSH1 0x0 REVERT JUMPDEST POP POP POP POP PUSH1 0x40 MLOAD RETURNDATASIZE PUSH1 0x1F NOT PUSH1 0x1F DUP3 ADD AND DUP3 ADD DUP1 PUSH1 0x40 MSTORE POP DUP2 ADD SWAP1 PUSH3 0x682 SWAP2 SWAP1 PUSH3 0x1801 JUMP JUMPDEST PUSH1 0x40 MLOAD PUSH3 0x692 SWAP3 SWAP2 SWAP1 PUSH3 0x1700 JUMP JUMPDEST PUSH1 0x40 MLOAD DUP1 SWAP2 SUB SWAP1 LOG1 POP JUMP JUMPDEST PUSH1 0x60 PUSH1 0x0 DUP1 DUP4 PUSH4 0xFFFFFFFF AND PUSH4 0xFFFFFFFF AND DUP2 MSTORE PUSH1 0x20 ADD SWAP1 DUP2 MSTORE PUSH1 0x20 ADD PUSH1 0x0 KECCAK256 PUSH1 0x0 SWAP1 SLOAD SWAP1 PUSH2 0x100 EXP SWAP1 DIV PUSH20 0xFFFFFFFFFFFFFFFFFFFFFFFFFFFFFFFFFFFFFFFF AND PUSH20 0xFFFFFFFFFFFFFFFFFFFFFFFFFFFFFFFFFFFFFFFF AND PUSH4 0x5AA68AC0 PUSH1 0x40 MLOAD DUP2 PUSH4 0xFFFFFFFF AND PUSH1 0xE0 SHL DUP2 MSTORE PUSH1 0x4 ADD PUSH1 0x0 PUSH1 0x40 MLOAD DUP1 DUP4 SUB DUP2 DUP7 GAS STATICCALL ISZERO DUP1 ISZERO PUSH3 0x729 JUMPI RETURNDATASIZE PUSH1 0x0 DUP1 RETURNDATACOPY RETURNDATASIZE PUSH1 0x0 REVERT JUMPDEST POP POP POP POP PUSH1 0x40 MLOAD RETURNDATASIZE PUSH1 0x0 DUP3 RETURNDATACOPY RETURNDATASIZE PUSH1 0x1F NOT PUSH1 0x1F DUP3 ADD AND DUP3 ADD DUP1 PUSH1 0x40 MSTORE POP DUP2 ADD SWAP1 PUSH3 0x754 SWAP2 SWAP1 PUSH3 0x193F JUMP JUMPDEST SWAP1 POP SWAP2 SWAP1 POP JUMP JUMPDEST PUSH1 0x0 DUP5 DUP5 DUP5 DUP5 PUSH1 0x40 MLOAD PUSH3 0x76F SWAP1 PUSH3 0xE31 JUMP JUMPDEST PUSH3 0x77E SWAP5 SWAP4 SWAP3 SWAP2 SWAP1 PUSH3 0x19E2 JUMP JUMPDEST PUSH1 0x40 MLOAD DUP1 SWAP2 SUB SWAP1 PUSH1 0x0 CREATE DUP1 ISZERO DUP1 ISZERO PUSH3 0x79B JUMPI RETURNDATASIZE PUSH1 0x0 DUP1 RETURNDATACOPY RETURNDATASIZE PUSH1 0x0 REVERT JUMPDEST POP SWAP1 POP DUP1 PUSH1 0x0 DUP1 PUSH1 0x1 PUSH1 0x0 SWAP1 SLOAD SWAP1 PUSH2 0x100 EXP SWAP1 DIV PUSH4 0xFFFFFFFF AND PUSH4 0xFFFFFFFF AND PUSH4 0xFFFFFFFF AND DUP2 MSTORE PUSH1 0x20 ADD SWAP1 DUP2 MSTORE PUSH1 0x20 ADD PUSH1 0x0 KECCAK256 PUSH1 0x0 PUSH2 0x100 EXP DUP2 SLOAD DUP2 PUSH20 0xFFFFFFFFFFFFFFFFFFFFFFFFFFFFFFFFFFFFFFFF MUL NOT AND SWAP1 DUP4 PUSH20 0xFFFFFFFFFFFFFFFFFFFFFFFFFFFFFFFFFFFFFFFF AND MUL OR SWAP1 SSTORE POP PUSH32 0x88267447F40672662FB1718420D8FB46A87EBB9B1F1839B28E77F7CF955E99DF PUSH1 0x1 PUSH1 0x0 SWAP1 SLOAD SWAP1 PUSH2 0x100 EXP SWAP1 DIV PUSH4 0xFFFFFFFF AND DUP6 DUP6 DUP6 PUSH1 0x40 MLOAD PUSH3 0x856 SWAP5 SWAP4 SWAP3 SWAP2 SWAP1 PUSH3 0x1A6F JUMP JUMPDEST PUSH1 0x40 MLOAD DUP1 SWAP2 SUB SWAP1 LOG1 PUSH1 0x1 PUSH1 0x0 DUP2 DUP2 SWAP1 SLOAD SWAP1 PUSH2 0x100 EXP SWAP1 DIV PUSH4 0xFFFFFFFF AND DUP1 SWAP3 SWAP2 SWAP1 PUSH3 0x882 SWAP1 PUSH3 0x178B JUMP JUMPDEST SWAP2 SWAP1 PUSH2 0x100 EXP DUP2 SLOAD DUP2 PUSH4 0xFFFFFFFF MUL NOT AND SWAP1 DUP4 PUSH4 0xFFFFFFFF AND MUL OR SWAP1 SSTORE POP POP POP POP POP POP POP JUMP JUMPDEST PUSH1 0x0 DUP1 PUSH1 0x0 DUP4 PUSH4 0xFFFFFFFF AND PUSH4 0xFFFFFFFF AND DUP2 MSTORE PUSH1 0x20 ADD SWAP1 DUP2 MSTORE PUSH1 0x20 ADD PUSH1 0x0 KECCAK256 PUSH1 0x0 SWAP1 SLOAD SWAP1 PUSH2 0x100 EXP SWAP1 DIV PUSH20 0xFFFFFFFFFFFFFFFFFFFFFFFFFFFFFFFFFFFFFFFF AND PUSH20 0xFFFFFFFFFFFFFFFFFFFFFFFFFFFFFFFFFFFFFFFF AND BALANCE SWAP1 POP SWAP2 SWAP1 POP JUMP JUMPDEST PUSH1 0x0 PUSH1 0x20 MSTORE DUP1 PUSH1 0x0 MSTORE PUSH1 0x40 PUSH1 0x0 KECCAK256 PUSH1 0x0 SWAP2 POP SLOAD SWAP1 PUSH2 0x100 EXP SWAP1 DIV PUSH20 0xFFFFFFFFFFFFFFFFFFFFFFFFFFFFFFFFFFFFFFFF AND DUP2 JUMP JUMPDEST PUSH3 0x944 PUSH3 0xDC8 JUMP JUMPDEST PUSH1 0x40 MLOAD DUP1 PUSH1 0xE0 ADD PUSH1 0x40 MSTORE DUP1 PUSH1 0x0 DUP1 DUP6 PUSH4 0xFFFFFFFF AND PUSH4 0xFFFFFFFF AND DUP2 MSTORE PUSH1 0x20 ADD SWAP1 DUP2 MSTORE PUSH1 0x20 ADD PUSH1 0x0 KECCAK256 PUSH1 0x0 SWAP1 SLOAD SWAP1 PUSH2 0x100 EXP SWAP1 DIV PUSH20 0xFFFFFFFFFFFFFFFFFFFFFFFFFFFFFFFFFFFFFFFF AND PUSH20 0xFFFFFFFFFFFFFFFFFFFFFFFFFFFFFFFFFFFFFFFF AND DUP2 MSTORE PUSH1 0x20 ADD PUSH1 0x0 DUP1 DUP6 PUSH4 0xFFFFFFFF AND PUSH4 0xFFFFFFFF AND DUP2 MSTORE PUSH1 0x20 ADD SWAP1 DUP2 MSTORE PUSH1 0x20 ADD PUSH1 0x0 KECCAK256 PUSH1 0x0 SWAP1 SLOAD SWAP1 PUSH2 0x100 EXP SWAP1 DIV PUSH20 0xFFFFFFFFFFFFFFFFFFFFFFFFFFFFFFFFFFFFFFFF AND PUSH20 0xFFFFFFFFFFFFFFFFFFFFFFFFFFFFFFFFFFFFFFFF AND PUSH4 0x7998A1C4 PUSH1 0x40 MLOAD DUP2 PUSH4 0xFFFFFFFF AND PUSH1 0xE0 SHL DUP2 MSTORE PUSH1 0x4 ADD PUSH1 0x0 PUSH1 0x40 MLOAD DUP1 DUP4 SUB DUP2 DUP7 GAS STATICCALL ISZERO DUP1 ISZERO PUSH3 0xA33 JUMPI RETURNDATASIZE PUSH1 0x0 DUP1 RETURNDATACOPY RETURNDATASIZE PUSH1 0x0 REVERT JUMPDEST POP POP POP POP PUSH1 0x40 MLOAD RETURNDATASIZE PUSH1 0x0 DUP3 RETURNDATACOPY RETURNDATASIZE PUSH1 0x1F NOT PUSH1 0x1F DUP3 ADD AND DUP3 ADD DUP1 PUSH1 0x40 MSTORE POP DUP2 ADD SWAP1 PUSH3 0xA5E SWAP2 SWAP1 PUSH3 0x1B3A JUMP JUMPDEST DUP2 MSTORE PUSH1 0x20 ADD PUSH1 0x0 DUP1 DUP6 PUSH4 0xFFFFFFFF AND PUSH4 0xFFFFFFFF AND DUP2 MSTORE PUSH1 0x20 ADD SWAP1 DUP2 MSTORE PUSH1 0x20 ADD PUSH1 0x0 KECCAK256 PUSH1 0x0 SWAP1 SLOAD SWAP1 PUSH2 0x100 EXP SWAP1 DIV PUSH20 0xFFFFFFFFFFFFFFFFFFFFFFFFFFFFFFFFFFFFFFFF AND PUSH20 0xFFFFFFFFFFFFFFFFFFFFFFFFFFFFFFFFFFFFFFFF AND PUSH4 0xF437BC59 PUSH1 0x40 MLOAD DUP2 PUSH4 0xFFFFFFFF AND PUSH1 0xE0 SHL DUP2 MSTORE PUSH1 0x4 ADD PUSH1 0x20 PUSH1 0x40 MLOAD DUP1 DUP4 SUB DUP2 DUP7 GAS STATICCALL ISZERO DUP1 ISZERO PUSH3 0xAED JUMPI RETURNDATASIZE PUSH1 0x0 DUP1 RETURNDATACOPY RETURNDATASIZE PUSH1 0x0 REVERT JUMPDEST POP POP POP POP PUSH1 0x40 MLOAD RETURNDATASIZE PUSH1 0x1F NOT PUSH1 0x1F DUP3 ADD AND DUP3 ADD DUP1 PUSH1 0x40 MSTORE POP DUP2 ADD SWAP1 PUSH3 0xB13 SWAP2 SWAP1 PUSH3 0x1BA2 JUMP JUMPDEST PUSH20 0xFFFFFFFFFFFFFFFFFFFFFFFFFFFFFFFFFFFFFFFF AND DUP2 MSTORE PUSH1 0x20 ADD PUSH1 0x0 DUP1 DUP6 PUSH4 0xFFFFFFFF AND PUSH4 0xFFFFFFFF AND DUP2 MSTORE PUSH1 0x20 ADD SWAP1 DUP2 MSTORE PUSH1 0x20 ADD PUSH1 0x0 KECCAK256 PUSH1 0x0 SWAP1 SLOAD SWAP1 PUSH2 0x100 EXP SWAP1 DIV PUSH20 0xFFFFFFFFFFFFFFFFFFFFFFFFFFFFFFFFFFFFFFFF AND PUSH20 0xFFFFFFFFFFFFFFFFFFFFFFFFFFFFFFFFFFFFFFFF AND BALANCE DUP2 MSTORE PUSH1 0x20 ADD PUSH1 0x0 DUP1 DUP6 PUSH4 0xFFFFFFFF AND PUSH4 0xFFFFFFFF AND DUP2 MSTORE PUSH1 0x20 ADD SWAP1 DUP2 MSTORE PUSH1 0x20 ADD PUSH1 0x0 KECCAK256 PUSH1 0x0 SWAP1 SLOAD SWAP1 PUSH2 0x100 EXP SWAP1 DIV PUSH20 0xFFFFFFFFFFFFFFFFFFFFFFFFFFFFFFFFFFFFFFFF AND PUSH20 0xFFFFFFFFFFFFFFFFFFFFFFFFFFFFFFFFFFFFFFFF AND PUSH4 0xD4B83992 PUSH1 0x40 MLOAD DUP2 PUSH4 0xFFFFFFFF AND PUSH1 0xE0 SHL DUP2 MSTORE PUSH1 0x4 ADD PUSH1 0x20 PUSH1 0x40 MLOAD DUP1 DUP4 SUB DUP2 DUP7 GAS STATICCALL ISZERO DUP1 ISZERO PUSH3 0xC13 JUMPI RETURNDATASIZE PUSH1 0x0 DUP1 RETURNDATACOPY RETURNDATASIZE PUSH1 0x0 REVERT JUMPDEST POP POP POP POP PUSH1 0x40 MLOAD RETURNDATASIZE PUSH1 0x1F NOT PUSH1 0x1F DUP3 ADD AND DUP3 ADD DUP1 PUSH1 0x40 MSTORE POP DUP2 ADD SWAP1 PUSH3 0xC39 SWAP2 SWAP1 PUSH3 0x1801 JUMP JUMPDEST DUP2 MSTORE PUSH1 0x20 ADD PUSH1 0x0 DUP1 DUP6 PUSH4 0xFFFFFFFF AND PUSH4 0xFFFFFFFF AND DUP2 MSTORE PUSH1 0x20 ADD SWAP1 DUP2 MSTORE PUSH1 0x20 ADD PUSH1 0x0 KECCAK256 PUSH1 0x0 SWAP1 SLOAD SWAP1 PUSH2 0x100 EXP SWAP1 DIV PUSH20 0xFFFFFFFFFFFFFFFFFFFFFFFFFFFFFFFFFFFFFFFF AND PUSH20 0xFFFFFFFFFFFFFFFFFFFFFFFFFFFFFFFFFFFFFFFF AND PUSH4 0xA035B1FE PUSH1 0x40 MLOAD DUP2 PUSH4 0xFFFFFFFF AND PUSH1 0xE0 SHL DUP2 MSTORE PUSH1 0x4 ADD PUSH1 0x20 PUSH1 0x40 MLOAD DUP1 DUP4 SUB DUP2 DUP7 GAS STATICCALL ISZERO DUP1 ISZERO PUSH3 0xCC8 JUMPI RETURNDATASIZE PUSH1 0x0 DUP1 RETURNDATACOPY RETURNDATASIZE PUSH1 0x0 REVERT JUMPDEST POP POP POP POP PUSH1 0x40 MLOAD RETURNDATASIZE PUSH1 0x1F NOT PUSH1 0x1F DUP3 ADD AND DUP3 ADD DUP1 PUSH1 0x40 MSTORE POP DUP2 ADD SWAP1 PUSH3 0xCEE SWAP2 SWAP1 PUSH3 0x1801 JUMP JUMPDEST DUP2 MSTORE PUSH1 0x20 ADD PUSH1 0x0 DUP1 DUP6 PUSH4 0xFFFFFFFF AND PUSH4 0xFFFFFFFF AND DUP2 MSTORE PUSH1 0x20 ADD SWAP1 DUP2 MSTORE PUSH1 0x20 ADD PUSH1 0x0 KECCAK256 PUSH1 0x0 SWAP1 SLOAD SWAP1 PUSH2 0x100 EXP SWAP1 DIV PUSH20 0xFFFFFFFFFFFFFFFFFFFFFFFFFFFFFFFFFFFFFFFF AND PUSH20 0xFFFFFFFFFFFFFFFFFFFFFFFFFFFFFFFFFFFFFFFF AND PUSH4 0x5AA68AC0 PUSH1 0x40 MLOAD DUP2 PUSH4 0xFFFFFFFF AND PUSH1 0xE0 SHL DUP2 MSTORE PUSH1 0x4 ADD PUSH1 0x0 PUSH1 0x40 MLOAD DUP1 DUP4 SUB DUP2 DUP7 GAS STATICCALL ISZERO DUP1 ISZERO PUSH3 0xD7D JUMPI RETURNDATASIZE PUSH1 0x0 DUP1 RETURNDATACOPY RETURNDATASIZE PUSH1 0x0 REVERT JUMPDEST POP POP POP POP PUSH1 0x40 MLOAD RETURNDATASIZE PUSH1 0x0 DUP3 RETURNDATACOPY RETURNDATASIZE PUSH1 0x1F NOT PUSH1 0x1F DUP3 ADD AND DUP3 ADD DUP1 PUSH1 0x40 MSTORE POP DUP2 ADD SWAP1 PUSH3 0xDA8 SWAP2 SWAP1 PUSH3 0x193F JUMP JUMPDEST DUP2 MSTORE POP SWAP1 POP SWAP2 SWAP1 POP JUMP JUMPDEST PUSH1 0x1 PUSH1 0x0 SWAP1 SLOAD SWAP1 PUSH2 0x100 EXP SWAP1 DIV PUSH4 0xFFFFFFFF AND DUP2 JUMP JUMPDEST PUSH1 0x40 MLOAD DUP1 PUSH1 0xE0 ADD PUSH1 0x40 MSTORE DUP1 PUSH1 0x0 PUSH20 0xFFFFFFFFFFFFFFFFFFFFFFFFFFFFFFFFFFFFFFFF AND DUP2 MSTORE PUSH1 0x20 ADD PUSH1 0x60 DUP2 MSTORE PUSH1 0x20 ADD PUSH1 0x0 PUSH20 0xFFFFFFFFFFFFFFFFFFFFFFFFFFFFFFFFFFFFFFFF AND DUP2 MSTORE PUSH1 0x20 ADD PUSH1 0x0 DUP2 MSTORE PUSH1 0x20 ADD PUSH1 0x0 DUP2 MSTORE PUSH1 0x20 ADD PUSH1 0x0 DUP2 MSTORE PUSH1 0x20 ADD PUSH1 0x60 DUP2 MSTORE POP SWAP1 JUMP JUMPDEST PUSH2 0x12ED DUP1 PUSH3 0x1BD5 DUP4 CODECOPY ADD SWAP1 JUMP JUMPDEST PUSH1 0x0 PUSH1 0x40 MLOAD SWAP1 POP SWAP1 JUMP JUMPDEST PUSH1 0x0 DUP1 REVERT JUMPDEST PUSH1 0x0 DUP1 REVERT JUMPDEST PUSH1 0x0 PUSH4 0xFFFFFFFF DUP3 AND SWAP1 POP SWAP2 SWAP1 POP JUMP JUMPDEST PUSH3 0xE6E DUP2 PUSH3 0xE53 JUMP JUMPDEST DUP2 EQ PUSH3 0xE7A JUMPI PUSH1 0x0 DUP1 REVERT JUMPDEST POP JUMP JUMPDEST PUSH1 0x0 DUP2 CALLDATALOAD SWAP1 POP PUSH3 0xE8E DUP2 PUSH3 0xE63 JUMP JUMPDEST SWAP3 SWAP2 POP POP JUMP JUMPDEST PUSH1 0x0 PUSH1 0x20 DUP3 DUP5 SUB SLT ISZERO PUSH3 0xEAD JUMPI PUSH3 0xEAC PUSH3 0xE49 JUMP JUMPDEST JUMPDEST PUSH1 0x0 PUSH3 0xEBD DUP5 DUP3 DUP6 ADD PUSH3 0xE7D JUMP JUMPDEST SWAP2 POP POP SWAP3 SWAP2 POP POP JUMP JUMPDEST PUSH1 0x0 DUP2 SWAP1 POP SWAP2 SWAP1 POP JUMP JUMPDEST PUSH3 0xEDB DUP2 PUSH3 0xEC6 JUMP JUMPDEST DUP3 MSTORE POP POP JUMP JUMPDEST PUSH1 0x0 PUSH1 0x20 DUP3 ADD SWAP1 POP PUSH3 0xEF8 PUSH1 0x0 DUP4 ADD DUP5 PUSH3 0xED0 JUMP JUMPDEST SWAP3 SWAP2 POP POP JUMP JUMPDEST PUSH1 0x0 DUP2 MLOAD SWAP1 POP SWAP2 SWAP1 POP JUMP JUMPDEST PUSH1 0x0 DUP3 DUP3 MSTORE PUSH1 0x20 DUP3 ADD SWAP1 POP SWAP3 SWAP2 POP POP JUMP JUMPDEST PUSH1 0x0 DUP2 SWAP1 POP PUSH1 0x20 DUP3 ADD SWAP1 POP SWAP2 SWAP1 POP JUMP JUMPDEST PUSH1 0x0 PUSH20 0xFFFFFFFFFFFFFFFFFFFFFFFFFFFFFFFFFFFFFFFF DUP3 AND SWAP1 POP SWAP2 SWAP1 POP JUMP JUMPDEST PUSH1 0x0 PUSH3 0xF57 DUP3 PUSH3 0xF2A JUMP JUMPDEST SWAP1 POP SWAP2 SWAP1 POP JUMP JUMPDEST PUSH3 0xF69 DUP2 PUSH3 0xF4A JUMP JUMPDEST DUP3 MSTORE POP POP JUMP JUMPDEST PUSH1 0x0 DUP2 MLOAD SWAP1 POP SWAP2 SWAP1 POP JUMP JUMPDEST PUSH1 0x0 DUP3 DUP3 MSTORE PUSH1 0x20 DUP3 ADD SWAP1 POP SWAP3 SWAP2 POP POP JUMP JUMPDEST PUSH1 0x0 JUMPDEST DUP4 DUP2 LT ISZERO PUSH3 0xFAB JUMPI DUP1 DUP3 ADD MLOAD DUP2 DUP5 ADD MSTORE PUSH1 0x20 DUP2 ADD SWAP1 POP PUSH3 0xF8E JUMP JUMPDEST PUSH1 0x0 DUP5 DUP5 ADD MSTORE POP POP POP POP JUMP JUMPDEST PUSH1 0x0 PUSH1 0x1F NOT PUSH1 0x1F DUP4 ADD AND SWAP1 POP SWAP2 SWAP1 POP JUMP JUMPDEST PUSH1 0x0 PUSH3 0xFD5 DUP3 PUSH3 0xF6F JUMP JUMPDEST PUSH3 0xFE1 DUP2 DUP6 PUSH3 0xF7A JUMP JUMPDEST SWAP4 POP PUSH3 0xFF3 DUP2 DUP6 PUSH1 0x20 DUP7 ADD PUSH3 0xF8B JUMP JUMPDEST PUSH3 0xFFE DUP2 PUSH3 0xFB7 JUMP JUMPDEST DUP5 ADD SWAP2 POP POP SWAP3 SWAP2 POP POP JUMP JUMPDEST PUSH3 0x1014 DUP2 PUSH3 0xEC6 JUMP JUMPDEST DUP3 MSTORE POP POP JUMP JUMPDEST PUSH1 0x0 DUP2 MLOAD SWAP1 POP SWAP2 SWAP1 POP JUMP JUMPDEST PUSH1 0x0 DUP3 DUP3 MSTORE PUSH1 0x20 DUP3 ADD SWAP1 POP SWAP3 SWAP2 POP POP JUMP JUMPDEST PUSH1 0x0 DUP2 SWAP1 POP PUSH1 0x20 DUP3 ADD SWAP1 POP SWAP2 SWAP1 POP JUMP JUMPDEST PUSH1 0x0 PUSH3 0x1054 DUP4 DUP4 PUSH3 0xF5E JUMP JUMPDEST PUSH1 0x20 DUP4 ADD SWAP1 POP SWAP3 SWAP2 POP POP JUMP JUMPDEST PUSH1 0x0 PUSH1 0x20 DUP3 ADD SWAP1 POP SWAP2 SWAP1 POP JUMP JUMPDEST PUSH1 0x0 PUSH3 0x107A DUP3 PUSH3 0x101A JUMP JUMPDEST PUSH3 0x1086 DUP2 DUP6 PUSH3 0x1025 JUMP JUMPDEST SWAP4 POP PUSH3 0x1093 DUP4 PUSH3 0x1036 JUMP JUMPDEST DUP1 PUSH1 0x0 JUMPDEST DUP4 DUP2 LT ISZERO PUSH3 0x10CA JUMPI DUP2 MLOAD PUSH3 0x10AE DUP9 DUP3 PUSH3 0x1046 JUMP JUMPDEST SWAP8 POP PUSH3 0x10BB DUP4 PUSH3 0x1060 JUMP JUMPDEST SWAP3 POP POP PUSH1 0x1 DUP2 ADD SWAP1 POP PUSH3 0x1097 JUMP JUMPDEST POP DUP6 SWAP4 POP POP POP POP SWAP3 SWAP2 POP POP JUMP JUMPDEST PUSH1 0x0 PUSH1 0xE0 DUP4 ADD PUSH1 0x0 DUP4 ADD MLOAD PUSH3 0x10F1 PUSH1 0x0 DUP7 ADD DUP3 PUSH3 0xF5E JUMP JUMPDEST POP PUSH1 0x20 DUP4 ADD MLOAD DUP5 DUP3 SUB PUSH1 0x20 DUP7 ADD MSTORE PUSH3 0x110B DUP3 DUP3 PUSH3 0xFC8 JUMP JUMPDEST SWAP2 POP POP PUSH1 0x40 DUP4 ADD MLOAD PUSH3 0x1122 PUSH1 0x40 DUP7 ADD DUP3 PUSH3 0xF5E JUMP JUMPDEST POP PUSH1 0x60 DUP4 ADD MLOAD PUSH3 0x1137 PUSH1 0x60 DUP7 ADD DUP3 PUSH3 0x1009 JUMP JUMPDEST POP PUSH1 0x80 DUP4 ADD MLOAD PUSH3 0x114C PUSH1 0x80 DUP7 ADD DUP3 PUSH3 0x1009 JUMP JUMPDEST POP PUSH1 0xA0 DUP4 ADD MLOAD PUSH3 0x1161 PUSH1 0xA0 DUP7 ADD DUP3 PUSH3 0x1009 JUMP JUMPDEST POP PUSH1 0xC0 DUP4 ADD MLOAD DUP5 DUP3 SUB PUSH1 0xC0 DUP7 ADD MSTORE PUSH3 0x117B DUP3 DUP3 PUSH3 0x106D JUMP JUMPDEST SWAP2 POP POP DUP1 SWAP2 POP POP SWAP3 SWAP2 POP POP JUMP JUMPDEST PUSH1 0x0 PUSH3 0x1196 DUP4 DUP4 PUSH3 0x10D7 JUMP JUMPDEST SWAP1 POP SWAP3 SWAP2 POP POP JUMP JUMPDEST PUSH1 0x0 PUSH1 0x20 DUP3 ADD SWAP1 POP SWAP2 SWAP1 POP JUMP JUMPDEST PUSH1 0x0 PUSH3 0x11B8 DUP3 PUSH3 0xEFE JUMP JUMPDEST PUSH3 0x11C4 DUP2 DUP6 PUSH3 0xF09 JUMP JUMPDEST SWAP4 POP DUP4 PUSH1 0x20 DUP3 MUL DUP6 ADD PUSH3 0x11D8 DUP6 PUSH3 0xF1A JUMP JUMPDEST DUP1 PUSH1 0x0 JUMPDEST DUP6 DUP2 LT ISZERO PUSH3 0x121A JUMPI DUP5 DUP5 SUB DUP10 MSTORE DUP2 MLOAD PUSH3 0x11F8 DUP6 DUP3 PUSH3 0x1188 JUMP JUMPDEST SWAP5 POP PUSH3 0x1205 DUP4 PUSH3 0x119E JUMP JUMPDEST SWAP3 POP PUSH1 0x20 DUP11 ADD SWAP10 POP POP PUSH1 0x1 DUP2 ADD SWAP1 POP PUSH3 0x11DC JUMP JUMPDEST POP DUP3 SWAP8 POP DUP8 SWAP6 POP POP POP POP POP POP SWAP3 SWAP2 POP POP JUMP JUMPDEST PUSH1 0x0 PUSH1 0x20 DUP3 ADD SWAP1 POP DUP2 DUP2 SUB PUSH1 0x0 DUP4 ADD MSTORE PUSH3 0x1248 DUP2 DUP5 PUSH3 0x11AB JUMP JUMPDEST SWAP1 POP SWAP3 SWAP2 POP POP JUMP JUMPDEST PUSH1 0x0 DUP3 DUP3 MSTORE PUSH1 0x20 DUP3 ADD SWAP1 POP SWAP3 SWAP2 POP POP JUMP JUMPDEST PUSH1 0x0 PUSH3 0x126E DUP3 PUSH3 0x101A JUMP JUMPDEST PUSH3 0x127A DUP2 DUP6 PUSH3 0x1250 JUMP JUMPDEST SWAP4 POP PUSH3 0x1287 DUP4 PUSH3 0x1036 JUMP JUMPDEST DUP1 PUSH1 0x0 JUMPDEST DUP4 DUP2 LT ISZERO PUSH3 0x12BE JUMPI DUP2 MLOAD PUSH3 0x12A2 DUP9 DUP3 PUSH3 0x1046 JUMP JUMPDEST SWAP8 POP PUSH3 0x12AF DUP4 PUSH3 0x1060 JUMP JUMPDEST SWAP3 POP POP PUSH1 0x1 DUP2 ADD SWAP1 POP PUSH3 0x128B JUMP JUMPDEST POP DUP6 SWAP4 POP POP POP POP SWAP3 SWAP2 POP POP JUMP JUMPDEST PUSH1 0x0 PUSH1 0x20 DUP3 ADD SWAP1 POP DUP2 DUP2 SUB PUSH1 0x0 DUP4 ADD MSTORE PUSH3 0x12E7 DUP2 DUP5 PUSH3 0x1261 JUMP JUMPDEST SWAP1 POP SWAP3 SWAP2 POP POP JUMP JUMPDEST PUSH1 0x0 DUP1 REVERT JUMPDEST PUSH1 0x0 DUP1 REVERT JUMPDEST PUSH32 0x4E487B7100000000000000000000000000000000000000000000000000000000 PUSH1 0x0 MSTORE PUSH1 0x41 PUSH1 0x4 MSTORE PUSH1 0x24 PUSH1 0x0 REVERT JUMPDEST PUSH3 0x1333 DUP3 PUSH3 0xFB7 JUMP JUMPDEST DUP2 ADD DUP2 DUP2 LT PUSH8 0xFFFFFFFFFFFFFFFF DUP3 GT OR ISZERO PUSH3 0x1355 JUMPI PUSH3 0x1354 PUSH3 0x12F9 JUMP JUMPDEST JUMPDEST DUP1 PUSH1 0x40 MSTORE POP POP POP JUMP JUMPDEST PUSH1 0x0 PUSH3 0x136A PUSH3 0xE3F JUMP JUMPDEST SWAP1 POP PUSH3 0x1378 DUP3 DUP3 PUSH3 0x1328 JUMP JUMPDEST SWAP2 SWAP1 POP JUMP JUMPDEST PUSH1 0x0 PUSH8 0xFFFFFFFFFFFFFFFF DUP3 GT ISZERO PUSH3 0x139B JUMPI PUSH3 0x139A PUSH3 0x12F9 JUMP JUMPDEST JUMPDEST PUSH3 0x13A6 DUP3 PUSH3 0xFB7 JUMP JUMPDEST SWAP1 POP PUSH1 0x20 DUP2 ADD SWAP1 POP SWAP2 SWAP1 POP JUMP JUMPDEST DUP3 DUP2 DUP4 CALLDATACOPY PUSH1 0x0 DUP4 DUP4 ADD MSTORE POP POP POP JUMP JUMPDEST PUSH1 0x0 PUSH3 0x13D9 PUSH3 0x13D3 DUP5 PUSH3 0x137D JUMP JUMPDEST PUSH3 0x135E JUMP JUMPDEST SWAP1 POP DUP3 DUP2 MSTORE PUSH1 0x20 DUP2 ADD DUP5 DUP5 DUP5 ADD GT ISZERO PUSH3 0x13F8 JUMPI PUSH3 0x13F7 PUSH3 0x12F4 JUMP JUMPDEST JUMPDEST PUSH3 0x1405 DUP5 DUP3 DUP6 PUSH3 0x13B3 JUMP JUMPDEST POP SWAP4 SWAP3 POP POP POP JUMP JUMPDEST PUSH1 0x0 DUP3 PUSH1 0x1F DUP4 ADD SLT PUSH3 0x1425 JUMPI PUSH3 0x1424 PUSH3 0x12EF JUMP JUMPDEST JUMPDEST DUP2 CALLDATALOAD PUSH3 0x1437 DUP5 DUP3 PUSH1 0x20 DUP7 ADD PUSH3 0x13C2 JUMP JUMPDEST SWAP2 POP POP SWAP3 SWAP2 POP POP JUMP JUMPDEST PUSH1 0x0 PUSH3 0x144D DUP3 PUSH3 0xF2A JUMP JUMPDEST SWAP1 POP SWAP2 SWAP1 POP JUMP JUMPDEST PUSH3 0x145F DUP2 PUSH3 0x1440 JUMP JUMPDEST DUP2 EQ PUSH3 0x146B JUMPI PUSH1 0x0 DUP1 REVERT JUMPDEST POP JUMP JUMPDEST PUSH1 0x0 DUP2 CALLDATALOAD SWAP1 POP PUSH3 0x147F DUP2 PUSH3 0x1454 JUMP JUMPDEST SWAP3 SWAP2 POP POP JUMP JUMPDEST PUSH3 0x1490 DUP2 PUSH3 0xEC6 JUMP JUMPDEST DUP2 EQ PUSH3 0x149C JUMPI PUSH1 0x0 DUP1 REVERT JUMPDEST POP JUMP JUMPDEST PUSH1 0x0 DUP2 CALLDATALOAD SWAP1 POP PUSH3 0x14B0 DUP2 PUSH3 0x1485 JUMP JUMPDEST SWAP3 SWAP2 POP POP JUMP JUMPDEST PUSH1 0x0 DUP1 PUSH1 0x0 DUP1 PUSH1 0x80 DUP6 DUP8 SUB SLT ISZERO PUSH3 0x14D3 JUMPI PUSH3 0x14D2 PUSH3 0xE49 JUMP JUMPDEST JUMPDEST PUSH1 0x0 DUP6 ADD CALLDATALOAD PUSH8 0xFFFFFFFFFFFFFFFF DUP2 GT ISZERO PUSH3 0x14F4 JUMPI PUSH3 0x14F3 PUSH3 0xE4E JUMP JUMPDEST JUMPDEST PUSH3 0x1502 DUP8 DUP3 DUP9 ADD PUSH3 0x140D JUMP JUMPDEST SWAP5 POP POP PUSH1 0x20 PUSH3 0x1515 DUP8 DUP3 DUP9 ADD PUSH3 0x146E JUMP JUMPDEST SWAP4 POP POP PUSH1 0x40 PUSH3 0x1528 DUP8 DUP3 DUP9 ADD PUSH3 0x149F JUMP JUMPDEST SWAP3 POP POP PUSH1 0x60 PUSH3 0x153B DUP8 DUP3 DUP9 ADD PUSH3 0x149F JUMP JUMPDEST SWAP2 POP POP SWAP3 SWAP6 SWAP2 SWAP5 POP SWAP3 POP JUMP JUMPDEST PUSH1 0x0 DUP2 SWAP1 POP SWAP2 SWAP1 POP JUMP JUMPDEST PUSH1 0x0 PUSH3 0x1572 PUSH3 0x156C PUSH3 0x1566 DUP5 PUSH3 0xF2A JUMP JUMPDEST PUSH3 0x1547 JUMP JUMPDEST PUSH3 0xF2A JUMP JUMPDEST SWAP1 POP SWAP2 SWAP1 POP JUMP JUMPDEST PUSH1 0x0 PUSH3 0x1586 DUP3 PUSH3 0x1551 JUMP JUMPDEST SWAP1 POP SWAP2 SWAP1 POP JUMP JUMPDEST PUSH1 0x0 PUSH3 0x159A DUP3 PUSH3 0x1579 JUMP JUMPDEST SWAP1 POP SWAP2 SWAP1 POP JUMP JUMPDEST PUSH3 0x15AC DUP2 PUSH3 0x158D JUMP JUMPDEST DUP3 MSTORE POP POP JUMP JUMPDEST PUSH1 0x0 PUSH1 0x20 DUP3 ADD SWAP1 POP PUSH3 0x15C9 PUSH1 0x0 DUP4 ADD DUP5 PUSH3 0x15A1 JUMP JUMPDEST SWAP3 SWAP2 POP POP JUMP JUMPDEST PUSH1 0x0 PUSH1 0xE0 DUP4 ADD PUSH1 0x0 DUP4 ADD MLOAD PUSH3 0x15E9 PUSH1 0x0 DUP7 ADD DUP3 PUSH3 0xF5E JUMP JUMPDEST POP PUSH1 0x20 DUP4 ADD MLOAD DUP5 DUP3 SUB PUSH1 0x20 DUP7 ADD MSTORE PUSH3 0x1603 DUP3 DUP3 PUSH3 0xFC8 JUMP JUMPDEST SWAP2 POP POP PUSH1 0x40 DUP4 ADD MLOAD PUSH3 0x161A PUSH1 0x40 DUP7 ADD DUP3 PUSH3 0xF5E JUMP JUMPDEST POP PUSH1 0x60 DUP4 ADD MLOAD PUSH3 0x162F PUSH1 0x60 DUP7 ADD DUP3 PUSH3 0x1009 JUMP JUMPDEST POP PUSH1 0x80 DUP4 ADD MLOAD PUSH3 0x1644 PUSH1 0x80 DUP7 ADD DUP3 PUSH3 0x1009 JUMP JUMPDEST POP PUSH1 0xA0 DUP4 ADD MLOAD PUSH3 0x1659 PUSH1 0xA0 DUP7 ADD DUP3 PUSH3 0x1009 JUMP JUMPDEST POP PUSH1 0xC0 DUP4 ADD MLOAD DUP5 DUP3 SUB PUSH1 0xC0 DUP7 ADD MSTORE PUSH3 0x1673 DUP3 DUP3 PUSH3 0x106D JUMP JUMPDEST SWAP2 POP POP DUP1 SWAP2 POP POP SWAP3 SWAP2 POP POP JUMP JUMPDEST PUSH1 0x0 PUSH1 0x20 DUP3 ADD SWAP1 POP DUP2 DUP2 SUB PUSH1 0x0 DUP4 ADD MSTORE PUSH3 0x169C DUP2 DUP5 PUSH3 0x15CF JUMP JUMPDEST SWAP1 POP SWAP3 SWAP2 POP POP JUMP JUMPDEST PUSH3 0x16AF DUP2 PUSH3 0xE53 JUMP JUMPDEST DUP3 MSTORE POP POP JUMP JUMPDEST PUSH1 0x0 PUSH1 0x20 DUP3 ADD SWAP1 POP PUSH3 0x16CC PUSH1 0x0 DUP4 ADD DUP5 PUSH3 0x16A4 JUMP JUMPDEST SWAP3 SWAP2 POP POP JUMP JUMPDEST PUSH3 0x16DD DUP2 PUSH3 0xF4A JUMP JUMPDEST DUP3 MSTORE POP POP JUMP JUMPDEST PUSH1 0x0 PUSH1 0x20 DUP3 ADD SWAP1 POP PUSH3 0x16FA PUSH1 0x0 DUP4 ADD DUP5 PUSH3 0x16D2 JUMP JUMPDEST SWAP3 SWAP2 POP POP JUMP JUMPDEST PUSH1 0x0 PUSH1 0x40 DUP3 ADD SWAP1 POP PUSH3 0x1717 PUSH1 0x0 DUP4 ADD DUP6 PUSH3 0x16D2 JUMP JUMPDEST PUSH3 0x1726 PUSH1 0x20 DUP4 ADD DUP5 PUSH3 0xED0 JUMP JUMPDEST SWAP4 SWAP3 POP POP POP JUMP JUMPDEST PUSH32 0x4E487B7100000000000000000000000000000000000000000000000000000000 PUSH1 0x0 MSTORE PUSH1 0x32 PUSH1 0x4 MSTORE PUSH1 0x24 PUSH1 0x0 REVERT JUMPDEST PUSH32 0x4E487B7100000000000000000000000000000000000000000000000000000000 PUSH1 0x0 MSTORE PUSH1 0x11 PUSH1 0x4 MSTORE PUSH1 0x24 PUSH1 0x0 REVERT JUMPDEST PUSH1 0x0 PUSH3 0x1798 DUP3 PUSH3 0xE53 JUMP JUMPDEST SWAP2 POP PUSH4 0xFFFFFFFF DUP3 SUB PUSH3 0x17B1 JUMPI PUSH3 0x17B0 PUSH3 0x175C JUMP JUMPDEST JUMPDEST PUSH1 0x1 DUP3 ADD SWAP1 POP SWAP2 SWAP1 POP JUMP JUMPDEST PUSH3 0x17C7 DUP2 PUSH3 0x1440 JUMP JUMPDEST DUP3 MSTORE POP POP JUMP JUMPDEST PUSH1 0x0 PUSH1 0x20 DUP3 ADD SWAP1 POP PUSH3 0x17E4 PUSH1 0x0 DUP4 ADD DUP5 PUSH3 0x17BC JUMP JUMPDEST SWAP3 SWAP2 POP POP JUMP JUMPDEST PUSH1 0x0 DUP2 MLOAD SWAP1 POP PUSH3 0x17FB DUP2 PUSH3 0x1485 JUMP JUMPDEST SWAP3 SWAP2 POP POP JUMP JUMPDEST PUSH1 0x0 PUSH1 0x20 DUP3 DUP5 SUB SLT ISZERO PUSH3 0x181A JUMPI PUSH3 0x1819 PUSH3 0xE49 JUMP JUMPDEST JUMPDEST PUSH1 0x0 PUSH3 0x182A DUP5 DUP3 DUP6 ADD PUSH3 0x17EA JUMP JUMPDEST SWAP2 POP POP SWAP3 SWAP2 POP POP JUMP JUMPDEST PUSH1 0x0 PUSH8 0xFFFFFFFFFFFFFFFF DUP3 GT ISZERO PUSH3 0x1851 JUMPI PUSH3 0x1850 PUSH3 0x12F9 JUMP JUMPDEST JUMPDEST PUSH1 0x20 DUP3 MUL SWAP1 POP PUSH1 0x20 DUP2 ADD SWAP1 POP SWAP2 SWAP1 POP JUMP JUMPDEST PUSH1 0x0 DUP1 REVERT JUMPDEST PUSH3 0x1872 DUP2 PUSH3 0xF4A JUMP JUMPDEST DUP2 EQ PUSH3 0x187E JUMPI PUSH1 0x0 DUP1 REVERT JUMPDEST POP JUMP JUMPDEST PUSH1 0x0 DUP2 MLOAD SWAP1 POP PUSH3 0x1892 DUP2 PUSH3 0x1867 JUMP JUMPDEST SWAP3 SWAP2 POP POP JUMP JUMPDEST PUSH1 0x0 PUSH3 0x18AF PUSH3 0x18A9 DUP5 PUSH3 0x1833 JUMP JUMPDEST PUSH3 0x135E JUMP JUMPDEST SWAP1 POP DUP1 DUP4 DUP3 MSTORE PUSH1 0x20 DUP3 ADD SWAP1 POP PUSH1 0x20 DUP5 MUL DUP4 ADD DUP6 DUP2 GT ISZERO PUSH3 0x18D5 JUMPI PUSH3 0x18D4 PUSH3 0x1862 JUMP JUMPDEST JUMPDEST DUP4 JUMPDEST DUP2 DUP2 LT ISZERO PUSH3 0x1902 JUMPI DUP1 PUSH3 0x18ED DUP9 DUP3 PUSH3 0x1881 JUMP JUMPDEST DUP5 MSTORE PUSH1 0x20 DUP5 ADD SWAP4 POP POP PUSH1 0x20 DUP2 ADD SWAP1 POP PUSH3 0x18D7 JUMP JUMPDEST POP POP POP SWAP4 SWAP3 POP POP POP JUMP JUMPDEST PUSH1 0x0 DUP3 PUSH1 0x1F DUP4 ADD SLT PUSH3 0x1924 JUMPI PUSH3 0x1923 PUSH3 0x12EF JUMP JUMPDEST JUMPDEST DUP2 MLOAD PUSH3 0x1936 DUP5 DUP3 PUSH1 0x20 DUP7 ADD PUSH3 0x1898 JUMP JUMPDEST SWAP2 POP POP SWAP3 SWAP2 POP POP JUMP JUMPDEST PUSH1 0x0 PUSH1 0x20 DUP3 DUP5 SUB SLT ISZERO PUSH3 0x1958 JUMPI PUSH3 0x1957 PUSH3 0xE49 JUMP JUMPDEST JUMPDEST PUSH1 0x0 DUP3 ADD MLOAD PUSH8 0xFFFFFFFFFFFFFFFF DUP2 GT ISZERO PUSH3 0x1979 JUMPI PUSH3 0x1978 PUSH3 0xE4E JUMP JUMPDEST JUMPDEST PUSH3 0x1987 DUP5 DUP3 DUP6 ADD PUSH3 0x190C JUMP JUMPDEST SWAP2 POP POP SWAP3 SWAP2 POP POP JUMP JUMPDEST PUSH1 0x0 DUP3 DUP3 MSTORE PUSH1 0x20 DUP3 ADD SWAP1 POP SWAP3 SWAP2 POP POP JUMP JUMPDEST PUSH1 0x0 PUSH3 0x19AE DUP3 PUSH3 0xF6F JUMP JUMPDEST PUSH3 0x19BA DUP2 DUP6 PUSH3 0x1990 JUMP JUMPDEST SWAP4 POP PUSH3 0x19CC DUP2 DUP6 PUSH1 0x20 DUP7 ADD PUSH3 0xF8B JUMP JUMPDEST PUSH3 0x19D7 DUP2 PUSH3 0xFB7 JUMP JUMPDEST DUP5 ADD SWAP2 POP POP SWAP3 SWAP2 POP POP JUMP JUMPDEST PUSH1 0x0 PUSH1 0x80 DUP3 ADD SWAP1 POP DUP2 DUP2 SUB PUSH1 0x0 DUP4 ADD MSTORE PUSH3 0x19FE DUP2 DUP8 PUSH3 0x19A1 JUMP JUMPDEST SWAP1 POP PUSH3 0x1A0F PUSH1 0x20 DUP4 ADD DUP7 PUSH3 0x17BC JUMP JUMPDEST PUSH3 0x1A1E PUSH1 0x40 DUP4 ADD DUP6 PUSH3 0xED0 JUMP JUMPDEST PUSH3 0x1A2D PUSH1 0x60 DUP4 ADD DUP5 PUSH3 0xED0 JUMP JUMPDEST SWAP6 SWAP5 POP POP POP POP POP JUMP JUMPDEST PUSH1 0x0 PUSH3 0x1A43 DUP3 PUSH3 0x1551 JUMP JUMPDEST SWAP1 POP SWAP2 SWAP1 POP JUMP JUMPDEST PUSH1 0x0 PUSH3 0x1A57 DUP3 PUSH3 0x1A36 JUMP JUMPDEST SWAP1 POP SWAP2 SWAP1 POP JUMP JUMPDEST PUSH3 0x1A69 DUP2 PUSH3 0x1A4A JUMP JUMPDEST DUP3 MSTORE POP POP JUMP JUMPDEST PUSH1 0x0 PUSH1 0x80 DUP3 ADD SWAP1 POP PUSH3 0x1A86 PUSH1 0x0 DUP4 ADD DUP8 PUSH3 0x16A4 JUMP JUMPDEST PUSH3 0x1A95 PUSH1 0x20 DUP4 ADD DUP7 PUSH3 0x1A5E JUMP JUMPDEST PUSH3 0x1AA4 PUSH1 0x40 DUP4 ADD DUP6 PUSH3 0xED0 JUMP JUMPDEST PUSH3 0x1AB3 PUSH1 0x60 DUP4 ADD DUP5 PUSH3 0xED0 JUMP JUMPDEST SWAP6 SWAP5 POP POP POP POP POP JUMP JUMPDEST PUSH1 0x0 PUSH3 0x1AD3 PUSH3 0x1ACD DUP5 PUSH3 0x137D JUMP JUMPDEST PUSH3 0x135E JUMP JUMPDEST SWAP1 POP DUP3 DUP2 MSTORE PUSH1 0x20 DUP2 ADD DUP5 DUP5 DUP5 ADD GT ISZERO PUSH3 0x1AF2 JUMPI PUSH3 0x1AF1 PUSH3 0x12F4 JUMP JUMPDEST JUMPDEST PUSH3 0x1AFF DUP5 DUP3 DUP6 PUSH3 0xF8B JUMP JUMPDEST POP SWAP4 SWAP3 POP POP POP JUMP JUMPDEST PUSH1 0x0 DUP3 PUSH1 0x1F DUP4 ADD SLT PUSH3 0x1B1F JUMPI PUSH3 0x1B1E PUSH3 0x12EF JUMP JUMPDEST JUMPDEST DUP2 MLOAD PUSH3 0x1B31 DUP5 DUP3 PUSH1 0x20 DUP7 ADD PUSH3 0x1ABC JUMP JUMPDEST SWAP2 POP POP SWAP3 SWAP2 POP POP JUMP JUMPDEST PUSH1 0x0 PUSH1 0x20 DUP3 DUP5 SUB SLT ISZERO PUSH3 0x1B53 JUMPI PUSH3 0x1B52 PUSH3 0xE49 JUMP JUMPDEST JUMPDEST PUSH1 0x0 DUP3 ADD MLOAD PUSH8 0xFFFFFFFFFFFFFFFF DUP2 GT ISZERO PUSH3 0x1B74 JUMPI PUSH3 0x1B73 PUSH3 0xE4E JUMP JUMPDEST JUMPDEST PUSH3 0x1B82 DUP5 DUP3 DUP6 ADD PUSH3 0x1B07 JUMP JUMPDEST SWAP2 POP POP SWAP3 SWAP2 POP POP JUMP JUMPDEST PUSH1 0x0 DUP2 MLOAD SWAP1 POP PUSH3 0x1B9C DUP2 PUSH3 0x1454 JUMP JUMPDEST SWAP3 SWAP2 POP POP JUMP JUMPDEST PUSH1 0x0 PUSH1 0x20 DUP3 DUP5 SUB SLT ISZERO PUSH3 0x1BBB JUMPI PUSH3 0x1BBA PUSH3 0xE49 JUMP JUMPDEST JUMPDEST PUSH1 0x0 PUSH3 0x1BCB DUP5 DUP3 DUP6 ADD PUSH3 0x1B8B JUMP JUMPDEST SWAP2 POP POP SWAP3 SWAP2 POP POP JUMP INVALID PUSH1 0x80 PUSH1 0x40 MSTORE CALLVALUE DUP1 ISZERO PUSH3 0x11 JUMPI PUSH1 0x0 DUP1 REVERT JUMPDEST POP PUSH1 0x40 MLOAD PUSH3 0x12ED CODESIZE SUB DUP1 PUSH3 0x12ED DUP4 CODECOPY DUP2 DUP2 ADD PUSH1 0x40 MSTORE DUP2 ADD SWAP1 PUSH3 0x37 SWAP2 SWAP1 PUSH3 0x2D5 JUMP JUMPDEST DUP4 PUSH1 0x0 SWAP1 DUP2 PUSH3 0x48 SWAP2 SWAP1 PUSH3 0x5A7 JUMP JUMPDEST POP DUP3 PUSH1 0x1 PUSH1 0x0 PUSH2 0x100 EXP DUP2 SLOAD DUP2 PUSH20 0xFFFFFFFFFFFFFFFFFFFFFFFFFFFFFFFFFFFFFFFF MUL NOT AND SWAP1 DUP4 PUSH20 0xFFFFFFFFFFFFFFFFFFFFFFFFFFFFFFFFFFFFFFFF AND MUL OR SWAP1 SSTORE POP DUP2 PUSH1 0x3 DUP2 SWAP1 SSTORE POP DUP1 PUSH1 0x4 DUP2 SWAP1 SSTORE POP POP POP POP POP PUSH3 0x68E JUMP JUMPDEST PUSH1 0x0 PUSH1 0x40 MLOAD SWAP1 POP SWAP1 JUMP JUMPDEST PUSH1 0x0 DUP1 REVERT JUMPDEST PUSH1 0x0 DUP1 REVERT JUMPDEST PUSH1 0x0 DUP1 REVERT JUMPDEST PUSH1 0x0 DUP1 REVERT JUMPDEST PUSH1 0x0 PUSH1 0x1F NOT PUSH1 0x1F DUP4 ADD AND SWAP1 POP SWAP2 SWAP1 POP JUMP JUMPDEST PUSH32 0x4E487B7100000000000000000000000000000000000000000000000000000000 PUSH1 0x0 MSTORE PUSH1 0x41 PUSH1 0x4 MSTORE PUSH1 0x24 PUSH1 0x0 REVERT JUMPDEST PUSH3 0x10B DUP3 PUSH3 0xC0 JUMP JUMPDEST DUP2 ADD DUP2 DUP2 LT PUSH8 0xFFFFFFFFFFFFFFFF DUP3 GT OR ISZERO PUSH3 0x12D JUMPI PUSH3 0x12C PUSH3 0xD1 JUMP JUMPDEST JUMPDEST DUP1 PUSH1 0x40 MSTORE POP POP POP JUMP JUMPDEST PUSH1 0x0 PUSH3 0x142 PUSH3 0xA2 JUMP JUMPDEST SWAP1 POP PUSH3 0x150 DUP3 DUP3 PUSH3 0x100 JUMP JUMPDEST SWAP2 SWAP1 POP JUMP JUMPDEST PUSH1 0x0 PUSH8 0xFFFFFFFFFFFFFFFF DUP3 GT ISZERO PUSH3 0x173 JUMPI PUSH3 0x172 PUSH3 0xD1 JUMP JUMPDEST JUMPDEST PUSH3 0x17E DUP3 PUSH3 0xC0 JUMP JUMPDEST SWAP1 POP PUSH1 0x20 DUP2 ADD SWAP1 POP SWAP2 SWAP1 POP JUMP JUMPDEST PUSH1 0x0 JUMPDEST DUP4 DUP2 LT ISZERO PUSH3 0x1AB JUMPI DUP1 DUP3 ADD MLOAD DUP2 DUP5 ADD MSTORE PUSH1 0x20 DUP2 ADD SWAP1 POP PUSH3 0x18E JUMP JUMPDEST PUSH1 0x0 DUP5 DUP5 ADD MSTORE POP POP POP POP JUMP JUMPDEST PUSH1 0x0 PUSH3 0x1CE PUSH3 0x1C8 DUP5 PUSH3 0x155 JUMP JUMPDEST PUSH3 0x136 JUMP JUMPDEST SWAP1 POP DUP3 DUP2 MSTORE PUSH1 0x20 DUP2 ADD DUP5 DUP5 DUP5 ADD GT ISZERO PUSH3 0x1ED JUMPI PUSH3 0x1EC PUSH3 0xBB JUMP JUMPDEST JUMPDEST PUSH3 0x1FA DUP5 DUP3 DUP6 PUSH3 0x18B JUMP JUMPDEST POP SWAP4 SWAP3 POP POP POP JUMP JUMPDEST PUSH1 0x0 DUP3 PUSH1 0x1F DUP4 ADD SLT PUSH3 0x21A JUMPI PUSH3 0x219 PUSH3 0xB6 JUMP JUMPDEST JUMPDEST DUP2 MLOAD PUSH3 0x22C DUP5 DUP3 PUSH1 0x20 DUP7 ADD PUSH3 0x1B7 JUMP JUMPDEST SWAP2 POP POP SWAP3 SWAP2 POP POP JUMP JUMPDEST PUSH1 0x0 PUSH20 0xFFFFFFFFFFFFFFFFFFFFFFFFFFFFFFFFFFFFFFFF DUP3 AND SWAP1 POP SWAP2 SWAP1 POP JUMP JUMPDEST PUSH1 0x0 PUSH3 0x262 DUP3 PUSH3 0x235 JUMP JUMPDEST SWAP1 POP SWAP2 SWAP1 POP JUMP JUMPDEST PUSH3 0x274 DUP2 PUSH3 0x255 JUMP JUMPDEST DUP2 EQ PUSH3 0x280 JUMPI PUSH1 0x0 DUP1 REVERT JUMPDEST POP JUMP JUMPDEST PUSH1 0x0 DUP2 MLOAD SWAP1 POP PUSH3 0x294 DUP2 PUSH3 0x269 JUMP JUMPDEST SWAP3 SWAP2 POP POP JUMP JUMPDEST PUSH1 0x0 DUP2 SWAP1 POP SWAP2 SWAP1 POP JUMP JUMPDEST PUSH3 0x2AF DUP2 PUSH3 0x29A JUMP JUMPDEST DUP2 EQ PUSH3 0x2BB JUMPI PUSH1 0x0 DUP1 REVERT JUMPDEST POP JUMP JUMPDEST PUSH1 0x0 DUP2 MLOAD SWAP1 POP PUSH3 0x2CF DUP2 PUSH3 0x2A4 JUMP JUMPDEST SWAP3 SWAP2 POP POP JUMP JUMPDEST PUSH1 0x0 DUP1 PUSH1 0x0 DUP1 PUSH1 0x80 DUP6 DUP8 SUB SLT ISZERO PUSH3 0x2F2 JUMPI PUSH3 0x2F1 PUSH3 0xAC JUMP JUMPDEST JUMPDEST PUSH1 0x0 DUP6 ADD MLOAD PUSH8 0xFFFFFFFFFFFFFFFF DUP2 GT ISZERO PUSH3 0x313 JUMPI PUSH3 0x312 PUSH3 0xB1 JUMP JUMPDEST JUMPDEST PUSH3 0x321 DUP8 DUP3 DUP9 ADD PUSH3 0x202 JUMP JUMPDEST SWAP5 POP POP PUSH1 0x20 PUSH3 0x334 DUP8 DUP3 DUP9 ADD PUSH3 0x283 JUMP JUMPDEST SWAP4 POP POP PUSH1 0x40 PUSH3 0x347 DUP8 DUP3 DUP9 ADD PUSH3 0x2BE JUMP JUMPDEST SWAP3 POP POP PUSH1 0x60 PUSH3 0x35A DUP8 DUP3 DUP9 ADD PUSH3 0x2BE JUMP JUMPDEST SWAP2 POP POP SWAP3 SWAP6 SWAP2 SWAP5 POP SWAP3 POP JUMP JUMPDEST PUSH1 0x0 DUP2 MLOAD SWAP1 POP SWAP2 SWAP1 POP JUMP JUMPDEST PUSH32 0x4E487B7100000000000000000000000000000000000000000000000000000000 PUSH1 0x0 MSTORE PUSH1 0x22 PUSH1 0x4 MSTORE PUSH1 0x24 PUSH1 0x0 REVERT JUMPDEST PUSH1 0x0 PUSH1 0x2 DUP3 DIV SWAP1 POP PUSH1 0x1 DUP3 AND DUP1 PUSH3 0x3B9 JUMPI PUSH1 0x7F DUP3 AND SWAP2 POP JUMPDEST PUSH1 0x20 DUP3 LT DUP2 SUB PUSH3 0x3CF JUMPI PUSH3 0x3CE PUSH3 0x371 JUMP JUMPDEST JUMPDEST POP SWAP2 SWAP1 POP JUMP JUMPDEST PUSH1 0x0 DUP2 SWAP1 POP DUP2 PUSH1 0x0 MSTORE PUSH1 0x20 PUSH1 0x0 KECCAK256 SWAP1 POP SWAP2 SWAP1 POP JUMP JUMPDEST PUSH1 0x0 PUSH1 0x20 PUSH1 0x1F DUP4 ADD DIV SWAP1 POP SWAP2 SWAP1 POP JUMP JUMPDEST PUSH1 0x0 DUP3 DUP3 SHL SWAP1 POP SWAP3 SWAP2 POP POP JUMP JUMPDEST PUSH1 0x0 PUSH1 0x8 DUP4 MUL PUSH3 0x439 PUSH32 0xFFFFFFFFFFFFFFFFFFFFFFFFFFFFFFFFFFFFFFFFFFFFFFFFFFFFFFFFFFFFFFFF DUP3 PUSH3 0x3FA JUMP JUMPDEST PUSH3 0x445 DUP7 DUP4 PUSH3 0x3FA JUMP JUMPDEST SWAP6 POP DUP1 NOT DUP5 AND SWAP4 POP DUP1 DUP7 AND DUP5 OR SWAP3 POP POP POP SWAP4 SWAP3 POP POP POP JUMP JUMPDEST PUSH1 0x0 DUP2 SWAP1 POP SWAP2 SWAP1 POP JUMP JUMPDEST PUSH1 0x0 PUSH3 0x488 PUSH3 0x482 PUSH3 0x47C DUP5 PUSH3 0x29A JUMP JUMPDEST PUSH3 0x45D JUMP JUMPDEST PUSH3 0x29A JUMP JUMPDEST SWAP1 POP SWAP2 SWAP1 POP JUMP JUMPDEST PUSH1 0x0 DUP2 SWAP1 POP SWAP2 SWAP1 POP JUMP JUMPDEST PUSH3 0x4A4 DUP4 PUSH3 0x467 JUMP JUMPDEST PUSH3 0x4BC PUSH3 0x4B3 DUP3 PUSH3 0x48F JUMP JUMPDEST DUP5 DUP5 SLOAD PUSH3 0x407 JUMP JUMPDEST DUP3 SSTORE POP POP POP POP JUMP JUMPDEST PUSH1 0x0 SWAP1 JUMP JUMPDEST PUSH3 0x4D3 PUSH3 0x4C4 JUMP JUMPDEST PUSH3 0x4E0 DUP2 DUP5 DUP5 PUSH3 0x499 JUMP JUMPDEST POP POP POP JUMP JUMPDEST JUMPDEST DUP2 DUP2 LT ISZERO PUSH3 0x508 JUMPI PUSH3 0x4FC PUSH1 0x0 DUP3 PUSH3 0x4C9 JUMP JUMPDEST PUSH1 0x1 DUP2 ADD SWAP1 POP PUSH3 0x4E6 JUMP JUMPDEST POP POP JUMP JUMPDEST PUSH1 0x1F DUP3 GT ISZERO PUSH3 0x557 JUMPI PUSH3 0x521 DUP2 PUSH3 0x3D5 JUMP JUMPDEST PUSH3 0x52C DUP5 PUSH3 0x3EA JUMP JUMPDEST DUP2 ADD PUSH1 0x20 DUP6 LT ISZERO PUSH3 0x53C JUMPI DUP2 SWAP1 POP JUMPDEST PUSH3 0x554 PUSH3 0x54B DUP6 PUSH3 0x3EA JUMP JUMPDEST DUP4 ADD DUP3 PUSH3 0x4E5 JUMP JUMPDEST POP POP JUMPDEST POP POP POP JUMP JUMPDEST PUSH1 0x0 DUP3 DUP3 SHR SWAP1 POP SWAP3 SWAP2 POP POP JUMP JUMPDEST PUSH1 0x0 PUSH3 0x57C PUSH1 0x0 NOT DUP5 PUSH1 0x8 MUL PUSH3 0x55C JUMP JUMPDEST NOT DUP1 DUP4 AND SWAP2 POP POP SWAP3 SWAP2 POP POP JUMP JUMPDEST PUSH1 0x0 PUSH3 0x597 DUP4 DUP4 PUSH3 0x569 JUMP JUMPDEST SWAP2 POP DUP3 PUSH1 0x2 MUL DUP3 OR SWAP1 POP SWAP3 SWAP2 POP POP JUMP JUMPDEST PUSH3 0x5B2 DUP3 PUSH3 0x366 JUMP JUMPDEST PUSH8 0xFFFFFFFFFFFFFFFF DUP2 GT ISZERO PUSH3 0x5CE JUMPI PUSH3 0x5CD PUSH3 0xD1 JUMP JUMPDEST JUMPDEST PUSH3 0x5DA DUP3 SLOAD PUSH3 0x3A0 JUMP JUMPDEST PUSH3 0x5E7 DUP3 DUP3 DUP6 PUSH3 0x50C JUMP JUMPDEST PUSH1 0x0 PUSH1 0x20 SWAP1 POP PUSH1 0x1F DUP4 GT PUSH1 0x1 DUP2 EQ PUSH3 0x61F JUMPI PUSH1 0x0 DUP5 ISZERO PUSH3 0x60A JUMPI DUP3 DUP8 ADD MLOAD SWAP1 POP JUMPDEST PUSH3 0x616 DUP6 DUP3 PUSH3 0x589 JUMP JUMPDEST DUP7 SSTORE POP PUSH3 0x686 JUMP JUMPDEST PUSH1 0x1F NOT DUP5 AND PUSH3 0x62F DUP7 PUSH3 0x3D5 JUMP JUMPDEST PUSH1 0x0 JUMPDEST DUP3 DUP2 LT ISZERO PUSH3 0x659 JUMPI DUP5 DUP10 ADD MLOAD DUP3 SSTORE PUSH1 0x1 DUP3 ADD SWAP2 POP PUSH1 0x20 DUP6 ADD SWAP5 POP PUSH1 0x20 DUP2 ADD SWAP1 POP PUSH3 0x632 JUMP JUMPDEST DUP7 DUP4 LT ISZERO PUSH3 0x679 JUMPI DUP5 DUP10 ADD MLOAD PUSH3 0x675 PUSH1 0x1F DUP10 AND DUP3 PUSH3 0x569 JUMP JUMPDEST DUP4 SSTORE POP JUMPDEST PUSH1 0x1 PUSH1 0x2 DUP9 MUL ADD DUP9 SSTORE POP POP POP JUMPDEST POP POP POP POP POP POP JUMP JUMPDEST PUSH2 0xC4F DUP1 PUSH3 0x69E PUSH1 0x0 CODECOPY PUSH1 0x0 RETURN INVALID PUSH1 0x80 PUSH1 0x40 MSTORE PUSH1 0x4 CALLDATASIZE LT PUSH2 0x8A JUMPI PUSH1 0x0 CALLDATALOAD PUSH1 0xE0 SHR DUP1 PUSH4 0x7998A1C4 GT PUSH2 0x59 JUMPI DUP1 PUSH4 0x7998A1C4 EQ PUSH2 0x145 JUMPI DUP1 PUSH4 0xA035B1FE EQ PUSH2 0x170 JUMPI DUP1 PUSH4 0xB91038C7 EQ PUSH2 0x19B JUMPI DUP1 PUSH4 0xD4B83992 EQ PUSH2 0x1B7 JUMPI DUP1 PUSH4 0xF437BC59 EQ PUSH2 0x1E2 JUMPI PUSH2 0x91 JUMP JUMPDEST DUP1 PUSH4 0x35C1D349 EQ PUSH2 0x96 JUMPI DUP1 PUSH4 0x3BDE5BA8 EQ PUSH2 0xD3 JUMPI DUP1 PUSH4 0x51CFF8D9 EQ PUSH2 0xFE JUMPI DUP1 PUSH4 0x5AA68AC0 EQ PUSH2 0x11A JUMPI PUSH2 0x91 JUMP JUMPDEST CALLDATASIZE PUSH2 0x91 JUMPI STOP JUMPDEST PUSH1 0x0 DUP1 REVERT JUMPDEST CALLVALUE DUP1 ISZERO PUSH2 0xA2 JUMPI PUSH1 0x0 DUP1 REVERT JUMPDEST POP PUSH2 0xBD PUSH1 0x4 DUP1 CALLDATASIZE SUB DUP2 ADD SWAP1 PUSH2 0xB8 SWAP2 SWAP1 PUSH2 0x695 JUMP JUMPDEST PUSH2 0x20D JUMP JUMPDEST PUSH1 0x40 MLOAD PUSH2 0xCA SWAP2 SWAP1 PUSH2 0x703 JUMP JUMPDEST PUSH1 0x40 MLOAD DUP1 SWAP2 SUB SWAP1 RETURN JUMPDEST CALLVALUE DUP1 ISZERO PUSH2 0xDF JUMPI PUSH1 0x0 DUP1 REVERT JUMPDEST POP PUSH2 0xE8 PUSH2 0x24C JUMP JUMPDEST PUSH1 0x40 MLOAD PUSH2 0xF5 SWAP2 SWAP1 PUSH2 0x739 JUMP JUMPDEST PUSH1 0x40 MLOAD DUP1 SWAP2 SUB SWAP1 RETURN JUMPDEST PUSH2 0x118 PUSH1 0x4 DUP1 CALLDATASIZE SUB DUP2 ADD SWAP1 PUSH2 0x113 SWAP2 SWAP1 PUSH2 0x792 JUMP JUMPDEST PUSH2 0x259 JUMP JUMPDEST STOP JUMPDEST CALLVALUE DUP1 ISZERO PUSH2 0x126 JUMPI PUSH1 0x0 DUP1 REVERT JUMPDEST POP PUSH2 0x12F PUSH2 0x498 JUMP JUMPDEST PUSH1 0x40 MLOAD PUSH2 0x13C SWAP2 SWAP1 PUSH2 0x87D JUMP JUMPDEST PUSH1 0x40 MLOAD DUP1 SWAP2 SUB SWAP1 RETURN JUMPDEST CALLVALUE DUP1 ISZERO PUSH2 0x151 JUMPI PUSH1 0x0 DUP1 REVERT JUMPDEST POP PUSH2 0x15A PUSH2 0x526 JUMP JUMPDEST PUSH1 0x40 MLOAD PUSH2 0x167 SWAP2 SWAP1 PUSH2 0x92F JUMP JUMPDEST PUSH1 0x40 MLOAD DUP1 SWAP2 SUB SWAP1 RETURN JUMPDEST CALLVALUE DUP1 ISZERO PUSH2 0x17C JUMPI PUSH1 0x0 DUP1 REVERT JUMPDEST POP PUSH2 0x185 PUSH2 0x5B4 JUMP JUMPDEST PUSH1 0x40 MLOAD PUSH2 0x192 SWAP2 SWAP1 PUSH2 0x960 JUMP JUMPDEST PUSH1 0x40 MLOAD DUP1 SWAP2 SUB SWAP1 RETURN JUMPDEST PUSH2 0x1B5 PUSH1 0x4 DUP1 CALLDATASIZE SUB DUP2 ADD SWAP1 PUSH2 0x1B0 SWAP2 SWAP1 PUSH2 0x9A7 JUMP JUMPDEST PUSH2 0x5BA JUMP JUMPDEST STOP JUMPDEST CALLVALUE DUP1 ISZERO PUSH2 0x1C3 JUMPI PUSH1 0x0 DUP1 REVERT JUMPDEST POP PUSH2 0x1CC PUSH2 0x62E JUMP JUMPDEST PUSH1 0x40 MLOAD PUSH2 0x1D9 SWAP2 SWAP1 PUSH2 0x960 JUMP JUMPDEST PUSH1 0x40 MLOAD DUP1 SWAP2 SUB SWAP1 RETURN JUMPDEST CALLVALUE DUP1 ISZERO PUSH2 0x1EE JUMPI PUSH1 0x0 DUP1 REVERT JUMPDEST POP PUSH2 0x1F7 PUSH2 0x634 JUMP JUMPDEST PUSH1 0x40 MLOAD PUSH2 0x204 SWAP2 SWAP1 PUSH2 0x9E3 JUMP JUMPDEST PUSH1 0x40 MLOAD DUP1 SWAP2 SUB SWAP1 RETURN JUMPDEST PUSH1 0x2 DUP2 DUP2 SLOAD DUP2 LT PUSH2 0x21D JUMPI PUSH1 0x0 DUP1 REVERT JUMPDEST SWAP1 PUSH1 0x0 MSTORE PUSH1 0x20 PUSH1 0x0 KECCAK256 ADD PUSH1 0x0 SWAP2 POP SLOAD SWAP1 PUSH2 0x100 EXP SWAP1 DIV PUSH20 0xFFFFFFFFFFFFFFFFFFFFFFFFFFFFFFFFFFFFFFFF AND DUP2 JUMP JUMPDEST PUSH1 0x0 PUSH1 0x3 SLOAD SELFBALANCE LT ISZERO SWAP1 POP SWAP1 JUMP JUMPDEST PUSH1 0x0 DUP2 PUSH20 0xFFFFFFFFFFFFFFFFFFFFFFFFFFFFFFFFFFFFFFFF AND PUSH1 0x4 SLOAD PUSH1 0x40 MLOAD PUSH2 0x281 SWAP1 PUSH2 0xA2F JUMP JUMPDEST PUSH1 0x0 PUSH1 0x40 MLOAD DUP1 DUP4 SUB DUP2 DUP6 DUP8 GAS CALL SWAP3 POP POP POP RETURNDATASIZE DUP1 PUSH1 0x0 DUP2 EQ PUSH2 0x2BE JUMPI PUSH1 0x40 MLOAD SWAP2 POP PUSH1 0x1F NOT PUSH1 0x3F RETURNDATASIZE ADD AND DUP3 ADD PUSH1 0x40 MSTORE RETURNDATASIZE DUP3 MSTORE RETURNDATASIZE PUSH1 0x0 PUSH1 0x20 DUP5 ADD RETURNDATACOPY PUSH2 0x2C3 JUMP JUMPDEST PUSH1 0x60 SWAP2 POP JUMPDEST POP POP SWAP1 POP DUP1 PUSH2 0x307 JUMPI PUSH1 0x40 MLOAD PUSH32 0x8C379A000000000000000000000000000000000000000000000000000000000 DUP2 MSTORE PUSH1 0x4 ADD PUSH2 0x2FE SWAP1 PUSH2 0xA90 JUMP JUMPDEST PUSH1 0x40 MLOAD DUP1 SWAP2 SUB SWAP1 REVERT JUMPDEST PUSH1 0x0 JUMPDEST PUSH1 0x2 DUP1 SLOAD SWAP1 POP DUP2 LT ISZERO PUSH2 0x493 JUMPI DUP3 PUSH20 0xFFFFFFFFFFFFFFFFFFFFFFFFFFFFFFFFFFFFFFFF AND PUSH1 0x2 DUP3 DUP2 SLOAD DUP2 LT PUSH2 0x342 JUMPI PUSH2 0x341 PUSH2 0xAB0 JUMP JUMPDEST JUMPDEST SWAP1 PUSH1 0x0 MSTORE PUSH1 0x20 PUSH1 0x0 KECCAK256 ADD PUSH1 0x0 SWAP1 SLOAD SWAP1 PUSH2 0x100 EXP SWAP1 DIV PUSH20 0xFFFFFFFFFFFFFFFFFFFFFFFFFFFFFFFFFFFFFFFF AND PUSH20 0xFFFFFFFFFFFFFFFFFFFFFFFFFFFFFFFFFFFFFFFF AND SUB PUSH2 0x480 JUMPI PUSH1 0x2 PUSH1 0x1 PUSH1 0x2 DUP1 SLOAD SWAP1 POP PUSH2 0x39C SWAP2 SWAP1 PUSH2 0xB0E JUMP JUMPDEST DUP2 SLOAD DUP2 LT PUSH2 0x3AD JUMPI PUSH2 0x3AC PUSH2 0xAB0 JUMP JUMPDEST JUMPDEST SWAP1 PUSH1 0x0 MSTORE PUSH1 0x20 PUSH1 0x0 KECCAK256 ADD PUSH1 0x0 SWAP1 SLOAD SWAP1 PUSH2 0x100 EXP SWAP1 DIV PUSH20 0xFFFFFFFFFFFFFFFFFFFFFFFFFFFFFFFFFFFFFFFF AND PUSH1 0x2 DUP3 DUP2 SLOAD DUP2 LT PUSH2 0x3EC JUMPI PUSH2 0x3EB PUSH2 0xAB0 JUMP JUMPDEST JUMPDEST SWAP1 PUSH1 0x0 MSTORE PUSH1 0x20 PUSH1 0x0 KECCAK256 ADD PUSH1 0x0 PUSH2 0x100 EXP DUP2 SLOAD DUP2 PUSH20 0xFFFFFFFFFFFFFFFFFFFFFFFFFFFFFFFFFFFFFFFF MUL NOT AND SWAP1 DUP4 PUSH20 0xFFFFFFFFFFFFFFFFFFFFFFFFFFFFFFFFFFFFFFFF AND MUL OR SWAP1 SSTORE POP PUSH1 0x2 DUP1 SLOAD DUP1 PUSH2 0x446 JUMPI PUSH2 0x445 PUSH2 0xB42 JUMP JUMPDEST JUMPDEST PUSH1 0x1 SWAP1 SUB DUP2 DUP2 SWAP1 PUSH1 0x0 MSTORE PUSH1 0x20 PUSH1 0x0 KECCAK256 ADD PUSH1 0x0 PUSH2 0x100 EXP DUP2 SLOAD SWAP1 PUSH20 0xFFFFFFFFFFFFFFFFFFFFFFFFFFFFFFFFFFFFFFFF MUL NOT AND SWAP1 SSTORE SWAP1 SSTORE PUSH2 0x493 JUMP JUMPDEST DUP1 DUP1 PUSH2 0x48B SWAP1 PUSH2 0xB71 JUMP JUMPDEST SWAP2 POP POP PUSH2 0x30A JUMP JUMPDEST POP POP POP JUMP JUMPDEST PUSH1 0x60 PUSH1 0x2 DUP1 SLOAD DUP1 PUSH1 0x20 MUL PUSH1 0x20 ADD PUSH1 0x40 MLOAD SWAP1 DUP2 ADD PUSH1 0x40 MSTORE DUP1 SWAP3 SWAP2 SWAP1 DUP2 DUP2 MSTORE PUSH1 0x20 ADD DUP3 DUP1 SLOAD DUP1 ISZERO PUSH2 0x51C JUMPI PUSH1 0x20 MUL DUP3 ADD SWAP2 SWAP1 PUSH1 0x0 MSTORE PUSH1 0x20 PUSH1 0x0 KECCAK256 SWAP1 JUMPDEST DUP2 PUSH1 0x0 SWAP1 SLOAD SWAP1 PUSH2 0x100 EXP SWAP1 DIV PUSH20 0xFFFFFFFFFFFFFFFFFFFFFFFFFFFFFFFFFFFFFFFF AND PUSH20 0xFFFFFFFFFFFFFFFFFFFFFFFFFFFFFFFFFFFFFFFF AND DUP2 MSTORE PUSH1 0x20 ADD SWAP1 PUSH1 0x1 ADD SWAP1 DUP1 DUP4 GT PUSH2 0x4D2 JUMPI JUMPDEST POP POP POP POP POP SWAP1 POP SWAP1 JUMP JUMPDEST PUSH1 0x0 DUP1 SLOAD PUSH2 0x533 SWAP1 PUSH2 0xBE8 JUMP JUMPDEST DUP1 PUSH1 0x1F ADD PUSH1 0x20 DUP1 SWAP2 DIV MUL PUSH1 0x20 ADD PUSH1 0x40 MLOAD SWAP1 DUP2 ADD PUSH1 0x40 MSTORE DUP1 SWAP3 SWAP2 SWAP1 DUP2 DUP2 MSTORE PUSH1 0x20 ADD DUP3 DUP1 SLOAD PUSH2 0x55F SWAP1 PUSH2 0xBE8 JUMP JUMPDEST DUP1 ISZERO PUSH2 0x5AC JUMPI DUP1 PUSH1 0x1F LT PUSH2 0x581 JUMPI PUSH2 0x100 DUP1 DUP4 SLOAD DIV MUL DUP4 MSTORE SWAP2 PUSH1 0x20 ADD SWAP2 PUSH2 0x5AC JUMP JUMPDEST DUP3 ADD SWAP2 SWAP1 PUSH1 0x0 MSTORE PUSH1 0x20 PUSH1 0x0 KECCAK256 SWAP1 JUMPDEST DUP2 SLOAD DUP2 MSTORE SWAP1 PUSH1 0x1 ADD SWAP1 PUSH1 0x20 ADD DUP1 DUP4 GT PUSH2 0x58F JUMPI DUP3 SWAP1 SUB PUSH1 0x1F AND DUP3 ADD SWAP2 JUMPDEST POP POP POP POP POP DUP2 JUMP JUMPDEST PUSH1 0x4 SLOAD DUP2 JUMP JUMPDEST PUSH1 0x4 SLOAD CALLVALUE EQ PUSH2 0x5C8 JUMPI PUSH1 0x0 DUP1 REVERT JUMPDEST PUSH1 0x2 DUP2 SWAP1 DUP1 PUSH1 0x1 DUP2 SLOAD ADD DUP1 DUP3 SSTORE DUP1 SWAP2 POP POP PUSH1 0x1 SWAP1 SUB SWAP1 PUSH1 0x0 MSTORE PUSH1 0x20 PUSH1 0x0 KECCAK256 ADD PUSH1 0x0 SWAP1 SWAP2 SWAP1 SWAP2 SWAP1 SWAP2 PUSH2 0x100 EXP DUP2 SLOAD DUP2 PUSH20 0xFFFFFFFFFFFFFFFFFFFFFFFFFFFFFFFFFFFFFFFF MUL NOT AND SWAP1 DUP4 PUSH20 0xFFFFFFFFFFFFFFFFFFFFFFFFFFFFFFFFFFFFFFFF AND MUL OR SWAP1 SSTORE POP POP JUMP JUMPDEST PUSH1 0x3 SLOAD DUP2 JUMP JUMPDEST PUSH1 0x1 PUSH1 0x0 SWAP1 SLOAD SWAP1 PUSH2 0x100 EXP SWAP1 DIV PUSH20 0xFFFFFFFFFFFFFFFFFFFFFFFFFFFFFFFFFFFFFFFF AND DUP2 JUMP JUMPDEST PUSH1 0x0 DUP1 REVERT JUMPDEST PUSH1 0x0 DUP2 SWAP1 POP SWAP2 SWAP1 POP JUMP JUMPDEST PUSH2 0x672 DUP2 PUSH2 0x65F JUMP JUMPDEST DUP2 EQ PUSH2 0x67D JUMPI PUSH1 0x0 DUP1 REVERT JUMPDEST POP JUMP JUMPDEST PUSH1 0x0 DUP2 CALLDATALOAD SWAP1 POP PUSH2 0x68F DUP2 PUSH2 0x669 JUMP JUMPDEST SWAP3 SWAP2 POP POP JUMP JUMPDEST PUSH1 0x0 PUSH1 0x20 DUP3 DUP5 SUB SLT ISZERO PUSH2 0x6AB JUMPI PUSH2 0x6AA PUSH2 0x65A JUMP JUMPDEST JUMPDEST PUSH1 0x0 PUSH2 0x6B9 DUP5 DUP3 DUP6 ADD PUSH2 0x680 JUMP JUMPDEST SWAP2 POP POP SWAP3 SWAP2 POP POP JUMP JUMPDEST PUSH1 0x0 PUSH20 0xFFFFFFFFFFFFFFFFFFFFFFFFFFFFFFFFFFFFFFFF DUP3 AND SWAP1 POP SWAP2 SWAP1 POP JUMP JUMPDEST PUSH1 0x0 PUSH2 0x6ED DUP3 PUSH2 0x6C2 JUMP JUMPDEST SWAP1 POP SWAP2 SWAP1 POP JUMP JUMPDEST PUSH2 0x6FD DUP2 PUSH2 0x6E2 JUMP JUMPDEST DUP3 MSTORE POP POP JUMP JUMPDEST PUSH1 0x0 PUSH1 0x20 DUP3 ADD SWAP1 POP PUSH2 0x718 PUSH1 0x0 DUP4 ADD DUP5 PUSH2 0x6F4 JUMP JUMPDEST SWAP3 SWAP2 POP POP JUMP JUMPDEST PUSH1 0x0 DUP2 ISZERO ISZERO SWAP1 POP SWAP2 SWAP1 POP JUMP JUMPDEST PUSH2 0x733 DUP2 PUSH2 0x71E JUMP JUMPDEST DUP3 MSTORE POP POP JUMP JUMPDEST PUSH1 0x0 PUSH1 0x20 DUP3 ADD SWAP1 POP PUSH2 0x74E PUSH1 0x0 DUP4 ADD DUP5 PUSH2 0x72A JUMP JUMPDEST SWAP3 SWAP2 POP POP JUMP JUMPDEST PUSH1 0x0 PUSH2 0x75F DUP3 PUSH2 0x6C2 JUMP JUMPDEST SWAP1 POP SWAP2 SWAP1 POP JUMP JUMPDEST PUSH2 0x76F DUP2 PUSH2 0x754 JUMP JUMPDEST DUP2 EQ PUSH2 0x77A JUMPI PUSH1 0x0 DUP1 REVERT JUMPDEST POP JUMP JUMPDEST PUSH1 0x0 DUP2 CALLDATALOAD SWAP1 POP PUSH2 0x78C DUP2 PUSH2 0x766 JUMP JUMPDEST SWAP3 SWAP2 POP POP JUMP JUMPDEST PUSH1 0x0 PUSH1 0x20 DUP3 DUP5 SUB SLT ISZERO PUSH2 0x7A8 JUMPI PUSH2 0x7A7 PUSH2 0x65A JUMP JUMPDEST JUMPDEST PUSH1 0x0 PUSH2 0x7B6 DUP5 DUP3 DUP6 ADD PUSH2 0x77D JUMP JUMPDEST SWAP2 POP POP SWAP3 SWAP2 POP POP JUMP JUMPDEST PUSH1 0x0 DUP2 MLOAD SWAP1 POP SWAP2 SWAP1 POP JUMP JUMPDEST PUSH1 0x0 DUP3 DUP3 MSTORE PUSH1 0x20 DUP3 ADD SWAP1 POP SWAP3 SWAP2 POP POP JUMP JUMPDEST PUSH1 0x0 DUP2 SWAP1 POP PUSH1 0x20 DUP3 ADD SWAP1 POP SWAP2 SWAP1 POP JUMP JUMPDEST PUSH2 0x7F4 DUP2 PUSH2 0x6E2 JUMP JUMPDEST DUP3 MSTORE POP POP JUMP JUMPDEST PUSH1 0x0 PUSH2 0x806 DUP4 DUP4 PUSH2 0x7EB JUMP JUMPDEST PUSH1 0x20 DUP4 ADD SWAP1 POP SWAP3 SWAP2 POP POP JUMP JUMPDEST PUSH1 0x0 PUSH1 0x20 DUP3 ADD SWAP1 POP SWAP2 SWAP1 POP JUMP JUMPDEST PUSH1 0x0 PUSH2 0x82A DUP3 PUSH2 0x7BF JUMP JUMPDEST PUSH2 0x834 DUP2 DUP6 PUSH2 0x7CA JUMP JUMPDEST SWAP4 POP PUSH2 0x83F DUP4 PUSH2 0x7DB JUMP JUMPDEST DUP1 PUSH1 0x0 JUMPDEST DUP4 DUP2 LT ISZERO PUSH2 0x870 JUMPI DUP2 MLOAD PUSH2 0x857 DUP9 DUP3 PUSH2 0x7FA JUMP JUMPDEST SWAP8 POP PUSH2 0x862 DUP4 PUSH2 0x812 JUMP JUMPDEST SWAP3 POP POP PUSH1 0x1 DUP2 ADD SWAP1 POP PUSH2 0x843 JUMP JUMPDEST POP DUP6 SWAP4 POP POP POP POP SWAP3 SWAP2 POP POP JUMP JUMPDEST PUSH1 0x0 PUSH1 0x20 DUP3 ADD SWAP1 POP DUP2 DUP2 SUB PUSH1 0x0 DUP4 ADD MSTORE PUSH2 0x897 DUP2 DUP5 PUSH2 0x81F JUMP JUMPDEST SWAP1 POP SWAP3 SWAP2 POP POP JUMP JUMPDEST PUSH1 0x0 DUP2 MLOAD SWAP1 POP SWAP2 SWAP1 POP JUMP JUMPDEST PUSH1 0x0 DUP3 DUP3 MSTORE PUSH1 0x20 DUP3 ADD SWAP1 POP SWAP3 SWAP2 POP POP JUMP JUMPDEST PUSH1 0x0 JUMPDEST DUP4 DUP2 LT ISZERO PUSH2 0x8D9 JUMPI DUP1 DUP3 ADD MLOAD DUP2 DUP5 ADD MSTORE PUSH1 0x20 DUP2 ADD SWAP1 POP PUSH2 0x8BE JUMP JUMPDEST PUSH1 0x0 DUP5 DUP5 ADD MSTORE POP POP POP POP JUMP JUMPDEST PUSH1 0x0 PUSH1 0x1F NOT PUSH1 0x1F DUP4 ADD AND SWAP1 POP SWAP2 SWAP1 POP JUMP JUMPDEST PUSH1 0x0 PUSH2 0x901 DUP3 PUSH2 0x89F JUMP JUMPDEST PUSH2 0x90B DUP2 DUP6 PUSH2 0x8AA JUMP JUMPDEST SWAP4 POP PUSH2 0x91B DUP2 DUP6 PUSH1 0x20 DUP7 ADD PUSH2 0x8BB JUMP JUMPDEST PUSH2 0x924 DUP2 PUSH2 0x8E5 JUMP JUMPDEST DUP5 ADD SWAP2 POP POP SWAP3 SWAP2 POP POP JUMP JUMPDEST PUSH1 0x0 PUSH1 0x20 DUP3 ADD SWAP1 POP DUP2 DUP2 SUB PUSH1 0x0 DUP4 ADD MSTORE PUSH2 0x949 DUP2 DUP5 PUSH2 0x8F6 JUMP JUMPDEST SWAP1 POP SWAP3 SWAP2 POP POP JUMP JUMPDEST PUSH2 0x95A DUP2 PUSH2 0x65F JUMP JUMPDEST DUP3 MSTORE POP POP JUMP JUMPDEST PUSH1 0x0 PUSH1 0x20 DUP3 ADD SWAP1 POP PUSH2 0x975 PUSH1 0x0 DUP4 ADD DUP5 PUSH2 0x951 JUMP JUMPDEST SWAP3 SWAP2 POP POP JUMP JUMPDEST PUSH2 0x984 DUP2 PUSH2 0x6E2 JUMP JUMPDEST DUP2 EQ PUSH2 0x98F JUMPI PUSH1 0x0 DUP1 REVERT JUMPDEST POP JUMP JUMPDEST PUSH1 0x0 DUP2 CALLDATALOAD SWAP1 POP PUSH2 0x9A1 DUP2 PUSH2 0x97B JUMP JUMPDEST SWAP3 SWAP2 POP POP JUMP JUMPDEST PUSH1 0x0 PUSH1 0x20 DUP3 DUP5 SUB SLT ISZERO PUSH2 0x9BD JUMPI PUSH2 0x9BC PUSH2 0x65A JUMP JUMPDEST JUMPDEST PUSH1 0x0 PUSH2 0x9CB DUP5 DUP3 DUP6 ADD PUSH2 0x992 JUMP JUMPDEST SWAP2 POP POP SWAP3 SWAP2 POP POP JUMP JUMPDEST PUSH2 0x9DD DUP2 PUSH2 0x754 JUMP JUMPDEST DUP3 MSTORE POP POP JUMP JUMPDEST PUSH1 0x0 PUSH1 0x20 DUP3 ADD SWAP1 POP PUSH2 0x9F8 PUSH1 0x0 DUP4 ADD DUP5 PUSH2 0x9D4 JUMP JUMPDEST SWAP3 SWAP2 POP POP JUMP JUMPDEST PUSH1 0x0 DUP2 SWAP1 POP SWAP3 SWAP2 POP POP JUMP JUMPDEST POP JUMP JUMPDEST PUSH1 0x0 PUSH2 0xA19 PUSH1 0x0 DUP4 PUSH2 0x9FE JUMP JUMPDEST SWAP2 POP PUSH2 0xA24 DUP3 PUSH2 0xA09 JUMP JUMPDEST PUSH1 0x0 DUP3 ADD SWAP1 POP SWAP2 SWAP1 POP JUMP JUMPDEST PUSH1 0x0 PUSH2 0xA3A DUP3 PUSH2 0xA0C JUMP JUMPDEST SWAP2 POP DUP2 SWAP1 POP SWAP2 SWAP1 POP JUMP JUMPDEST PUSH32 0x4572726F723A207061796D656E74206E6F742072657475726E65640000000000 PUSH1 0x0 DUP3 ADD MSTORE POP JUMP JUMPDEST PUSH1 0x0 PUSH2 0xA7A PUSH1 0x1B DUP4 PUSH2 0x8AA JUMP JUMPDEST SWAP2 POP PUSH2 0xA85 DUP3 PUSH2 0xA44 JUMP JUMPDEST PUSH1 0x20 DUP3 ADD SWAP1 POP SWAP2 SWAP1 POP JUMP JUMPDEST PUSH1 0x0 PUSH1 0x20 DUP3 ADD SWAP1 POP DUP2 DUP2 SUB PUSH1 0x0 DUP4 ADD MSTORE PUSH2 0xAA9 DUP2 PUSH2 0xA6D JUMP JUMPDEST SWAP1 POP SWAP2 SWAP1 POP JUMP JUMPDEST PUSH32 0x4E487B7100000000000000000000000000000000000000000000000000000000 PUSH1 0x0 MSTORE PUSH1 0x32 PUSH1 0x4 MSTORE PUSH1 0x24 PUSH1 0x0 REVERT JUMPDEST PUSH32 0x4E487B7100000000000000000000000000000000000000000000000000000000 PUSH1 0x0 MSTORE PUSH1 0x11 PUSH1 0x4 MSTORE PUSH1 0x24 PUSH1 0x0 REVERT JUMPDEST PUSH1 0x0 PUSH2 0xB19 DUP3 PUSH2 0x65F JUMP JUMPDEST SWAP2 POP PUSH2 0xB24 DUP4 PUSH2 0x65F JUMP JUMPDEST SWAP3 POP DUP3 DUP3 SUB SWAP1 POP DUP2 DUP2 GT ISZERO PUSH2 0xB3C JUMPI PUSH2 0xB3B PUSH2 0xADF JUMP JUMPDEST JUMPDEST SWAP3 SWAP2 POP POP JUMP JUMPDEST PUSH32 0x4E487B7100000000000000000000000000000000000000000000000000000000 PUSH1 0x0 MSTORE PUSH1 0x31 PUSH1 0x4 MSTORE PUSH1 0x24 PUSH1 0x0 REVERT JUMPDEST PUSH1 0x0 PUSH2 0xB7C DUP3 PUSH2 0x65F JUMP JUMPDEST SWAP2 POP PUSH32 0xFFFFFFFFFFFFFFFFFFFFFFFFFFFFFFFFFFFFFFFFFFFFFFFFFFFFFFFFFFFFFFFF DUP3 SUB PUSH2 0xBAE JUMPI PUSH2 0xBAD PUSH2 0xADF JUMP JUMPDEST JUMPDEST PUSH1 0x1 DUP3 ADD SWAP1 POP SWAP2 SWAP1 POP JUMP JUMPDEST PUSH32 0x4E487B7100000000000000000000000000000000000000000000000000000000 PUSH1 0x0 MSTORE PUSH1 0x22 PUSH1 0x4 MSTORE PUSH1 0x24 PUSH1 0x0 REVERT JUMPDEST PUSH1 0x0 PUSH1 0x2 DUP3 DIV SWAP1 POP PUSH1 0x1 DUP3 AND DUP1 PUSH2 0xC00 JUMPI PUSH1 0x7F DUP3 AND SWAP2 POP JUMPDEST PUSH1 0x20 DUP3 LT DUP2 SUB PUSH2 0xC13 JUMPI PUSH2 0xC12 PUSH2 0xBB9 JUMP JUMPDEST JUMPDEST POP SWAP2 SWAP1 POP JUMP INVALID LOG2 PUSH5 0x6970667358 0x22 SLT KECCAK256 PUSH32 0xA9AF480BE2C1C5F7655D96C15A38708E3DA38A22BC2568C07D1DD52736E95A64 PUSH20 0x6F6C63430008110033A2646970667358221220DC 0x2D DUP4 DUP12 0xC4 0xD5 SELFDESTRUCT 0xD2 0xC4 0xC7 0xC9 CALL 0xC3 0xA8 0xD3 STATICCALL 0xDF JUMP 0xFB SAR 0xEF CHAINID 0x2F 0xD EQ 0xB4 0xCE 0xC9 CALLDATACOPY 0xA8 0xCF 0xDD PUSH5 0x736F6C6343 STOP ADDMOD GT STOP CALLER "},"methodIdentifiers":{"createListing(string,address,uint256,uint256)":"9d2c5e6b","getAllListingData()":"4d44eab8","getListingBalance(uint32)":"090a65c3","getListingData(uint32)":"fc1db46b","getListingParticipants(uint32)":"92bc4627","getListingPrice(uint32)":"a5b1376c","listings(uint32)":"f81c2347","nextIndex()":"fc7e9c6f","participateInListing(uint32)":"20d03891","withdrawFromListing(uint32)":"54f90d2e"}}}}}